:020000040800F2
:1000000080040020A1010008DF020008D7020008D8
:10001000DB020008E9010008B30900080000000045
:1000200000000000000000000000000001050008C2
:10003000ED01000800000000950300081906000803
:10004000BB010008BB010008BB010008BB010008A0
:10005000BB010008BB010008BB010008BB01000890
:10006000BB010008BB010008BB010008BB01000880
:10007000BB010008BB010008BB010008BB01000870
:10008000BB010008BB010008BB010008BB01000860
:10009000BB010008BB010008BB010008BB01000850
:1000A000BB010008BB010008BB010008BB01000840
:1000B000BB010008BB010008BB010008BB01000830
:1000C000BB010008BB010008BB010008BB01000820
:1000D000BB01000885060008BB010008BB01000841
:1000E000BB010008BB010008BB010008BB01000800
:1000F000BB010008BB010008BB010008BB010008F0
:10010000BB010008BB010008BB010008BB010008DF
:10011000BB010008BB010008BB010008BB010008CF
:10012000BB010008BB010008BB010008BB010008BF
:10013000BB010008BB010008BB010008BB010008AF
:10014000BB010008BB010008BB010008BB0100089F
:10015000BB010008BB010008BB010008BB0100088F
:10016000BB010008BB010008BB010008BB0100087F
:10017000BB010008BB010008BB010008BB0100086F
:10018000BB010008BB010008DFF810D000F01AF82E
:10019000004800476D0A0008AFF30080800400208B
:1001A0000648804706480047FEE7FEE7FEE7FEE711
:1001B000FEE7FEE7FEE7FEE7FEE7FEE71D060008B6
:1001C00089010008064C074D06E0E06840F0010395
:1001D00094E8070098471034AC42F6D3FFF7D8FFF5
:1001E000C80B0008E80B000800BFFEE77047F0B539
:1001F0000A4600210023002400BF3DE0012505FA46
:1002000001F3156805EA03049C4234D105684F00E8
:100210000326BE40B543056015794E00B54006681B
:10022000354305601579012D02D01579022D16D1BF
:1002300085684F000326BE40B543856055794E0062
:10024000B540866835438560456801268E40B543D4
:100250004560456896798E40B6B235434560C568BD
:100260004F000326BE40B543C560D5794E00B5406A
:10027000C6683543C560491C1029BFD3F0BDF0B531
:10028000002300244D07ED0E02FA05F3CE1000F115
:10029000200555F826504E07F70E0F26BE40B543F1
:1002A000CF1000F1200646F82750CE1000F12005AF
:1002B00055F8265045EA0304CE1000F1200545F814
:1002C0002640F0BD4FF6FF710160002101714171C0
:1002D0008171C171704700BFFEE700BFFEE7704744
:1002E00008B54FF4A06000F04BF825208DF8000011
:1002F00001208DF801008DF802008DF8030068469A
:1003000000F002F808BD000070B5002100230F22A4
:10031000C4781CB3174C246804F4E064C4F5E064AA
:10032000C4F30721C1F10404E3B20A4144789C40BC
:10033000E1B28478144021430C07210E0E4C05785D
:100340006155047804F01F050124AC4005786D1157
:10035000AD0005F1E025C5F8004109E0047804F09E
:100360001F050124AC40054D0678761145F826405E
:1003700070BD00000CED00E000E400E080E100E072
:1003800002490143024A1160704700000000FA056B
:100390000CED00E07047000029B1064A12680243E4
:1003A000044B1A6004E0034A12688243014B1A604E
:1003B000704700003038024029B1064A12680243F3
:1003C000044B1A6004E0034A12688243014B1A602E
:1003D000704700002038024029B1064A12680243E3
:1003E000044B1A6004E0034A12688243014B1A600E
:1003F000704700004438024029B1064A126802439F
:10040000044B1A6004E0034A12688243014B1A60ED
:100410007047000024380240F0B50021002200247B
:10042000022500260223324F3F6807F00C0121B15C
:10043000042905D0082937D105E02E4F076036E0A2
:100440002D4F076033E02A4F3F1F3F68C7F38056A8
:10045000274F3F1F3F6807F03F036EB1264FB7FBA2
:10046000F3F7DFF88CC0ACF1040CDCF800C0CCF37F
:10047000881C07FB0CF40CE01E4FB7FBF3F7DFF80A
:1004800070C0ACF1040CDCF800C0CCF3881C07FB96
:100490000CF4174F3F1F3F68C7F301477F1C7D00D7
:1004A000B4FBF5F7076002E0124F076000BF00BF22
:1004B0000F4F3F6807F0F0010909104F7A5C076899
:1004C000D74047600A4F3F6807F4E051890A0B4F55
:1004D0007A5C4768D7408760054F3F6807F4604102
:1004E000490B064F7A5C4768D740C760F0BD0000F3
:1004F000083802400024F40000127A0000000020B6
:10050000704700000CB5002001900090344800684E
:1005100040F480303249086000BF3148006800F480
:10052000003000900198401C0190009818B9019883
:10053000B0F5A04FF1D12A48006800F4003010B1A6
:100540000120009001E0002000900098012846D191
:1005500023484030006840F0805021494031086015
:100560002048006840F440401E4908601C4808309C
:1005700000681B49083108600846006840F40040E4
:1005800008600846006840F4A05008601648091F3B
:100590000860081F006840F08070091F086000BFF5
:1005A0000F48006800F000700028F9D040F2057094
:1005B0000E4908600A480830006820F00300084926
:1005C000083108600846006840F00200086000BF7B
:1005D00003480830006800F00C000828F8D10CBD72
:1005E000003802400070004008544007003C0240C0
:1005F000042808D14FF0E021096941F004014FF0CF
:10060000E022116107E04FF0E021096921F00401C7
:100610004FF0E022116170477047000010B5154897
:10062000006840F47000134908601348006840F007
:1006300001001149086000200F49083108600E4888
:1006400000680E4908400C4908600D48091D086003
:10065000081F006820F48020091F08600020064958
:100660000C310860FFF74EFF4FF000600149803900
:10067000086010BD88ED00E000380240FFFFF6FE84
:100680001030002410B540F22551134800F0C3F893
:1006900080B1114800F078F9C1B2104842680830C2
:1006A000815408384068401C0C494860622801D9D0
:1006B0000020486040F22441074800F0ACF850B1F7
:1006C000054800F061F9002104484268083081546F
:1006D00001200249086010BD0010014014000020F4
:1006E00001F40072B2F5007F00D100BFCA4302805E
:1006F000704721B1828942F40052828104E08289EC
:100700004DF6FF731A4082817047000010B5044611
:100710003248844208D101211020FFF76DFE0021EC
:100720001020FFF769FE57E02D48844209D10121CE
:100730004804FFF741FE00214FF40030FFF73CFE74
:100740004AE02848844209D101218804FFF734FE99
:1007500000214FF48020FFF72FFE3DE02248844225
:1007600009D10121C804FFF727FE00214FF4002022
:10077000FFF722FE30E01D48844209D1012108051F
:10078000FFF71AFE00214FF48010FFF715FE23E05B
:100790001748844208D101212020FFF72DFE0021B7
:1007A0002020FFF729FE17E01248844209D10121D9
:1007B0008807FFF701FE00214FF08040FFF7FCFDA6
:1007C0000AE00D48844207D101214005FFF7F4FDFE
:1007D00000216005FFF7F0FD10BD00000010014092
:1007E0000044004000480040004C004000500040E1
:1007F0000014014000780040007C004002460020C8
:10080000B1F5007F00D100BF13880B400BB1012070
:1008100000E00020704770B5024600240023002548
:10082000002040F66A16B14200D100BFC1F3421564
:1008300001F01F03012606FA03F3012D02D1968968
:10084000334006E0022D02D1168A334001E0968A39
:1008500033400C12012606FA04F41688344013B112
:100860000CB1012000E0002070BDF0B5034600246B
:1008700000260025002040F66A17B94200D100BFCB
:100880001846C1F3421401F01F06012707FA06F5C6
:10089000012C01D10C3004E0022C01D1103000E019
:1008A00014301AB107682F43076002E00768AF43AE
:1008B0000760F0BD2DE9FF4705460E460024A1461E
:1008C00000BFA046B08900B100BF2C8A24F4405478
:1008D000F08804432C82AC8941F20C608443B088D8
:1008E00031890843718908430443AC81AC8A24F4FC
:1008F0004074B0890443AC826846FFF78DFD204800
:10090000854202D01F48854202D1DDF80C9001E0FB
:10091000DDF80890A88900F4004040B109EBC90057
:1009200000EB091031684900B0FBF1F707E009EB73
:10093000C90000EB091031688900B0FBF1F76420B1
:10094000B7FBF0F004012009642101FB1078A889AD
:1009500000F4004040B1322000EBC800B0FBF1F0E1
:1009600000F00700044308E0322000EB0810642187
:10097000B0FBF1F000F00F0004432C81BDE8FF87CD
:10098000001001400014014001468888C0F30800AF
:100990007047C1F30802828070474FF4165101601E
:1009A00000218180C18001810C2141810021818150
:1009B000704700BFFEE70000014A024900F013B88B
:1009C000490A00081000002002E008C8121F08C1F0
:1009D000002AFAD170477047002001E001C1121FC0
:1009E000002AFBD170472DE9F04116460F46044618
:1009F000002503E03946B047641C6D1C20780028B0
:100A0000F8D12846BDE8F08110B54FF000600849E4
:100A100008600420FFF7ECFD4FF6FF704FF0E02177
:100A200048610846006940F00100086110BD0000FF
:100A300008ED00E010B5044604F1080000F0A8F845
:100A400000202060606010BD70B504460D46E1B224
:100A50000548FFF79EFF00BF80210348FFF7CEFE49
:100A60000028F9D0204670BD00100140FFF7CCFFF0
:100A70004FF4E13000F016F805A0FFF79DFF06E007
:100A800007480068012802D10548FFF7D3FFF7E7C0
:100A9000555341525420496E697421210D0A0000BA
:100AA0001400002010B586B0044601210846FFF767
:100AB00073FC072209213448FFF7E1FB07220A21D2
:100AC0003148FFF7DCFB04A8FFF7FCFB4FF4007094
:100AD000049002208DF8140003208DF815000020EA
:100AE0008DF8160001208DF8170004A92648FFF79D
:100AF0007EFB04A8FFF7E6FB4FF480600490022021
:100B00008DF8140003208DF8150000208DF81600D4
:100B100001208DF8170004A91B48FFF768FB01218D
:100B20001020FFF759FC1948FFF7F0FD6846FFF762
:100B300034FF00940020ADF80400ADF80600ADF8D5
:100B400008000C20ADF80A000020ADF80C00694642
:100B50000E48FFF7AFFE20210C48FFF7C1FDFFF75D
:100B6000BFFB012240F225510848FFF77EFE01221B
:100B700040F224410548FFF778FE01210348FFF7C2
:100B8000B8FD06B010BD000000000240001001409A
:100B900010B5044603E014F8010B00F005F814B199
:100BA00020780028F7D110BD10B50446214605482D
:100BB000FFF7EFFE00BF80210248FFF71FFE00286D
:100BC000F9D010BD00100140E80B00080000002023
:100BD00014000000C8090008FC0B000814000020E5
:100BE0006C040000D80900080000000001020304A2
:0C0BF000010203040607080900000000D1
:040000050800018965
:00000001FF
