:020000040800F2
:1000000080040020A101000865040008D702000850
:1000100061040008E9010008570B00080000000017
:10002000000000000000000000000000A50600081D
:10003000ED0100080000000019050008BD070008D8
:10004000BB010008BB010008BB010008BB010008A0
:10005000BB010008BB010008BB010008BB01000890
:10006000BB010008BB010008BB010008BB01000880
:10007000BB010008BB010008BB010008BB01000870
:10008000BB010008BB010008BB010008BB01000860
:10009000BB010008BB010008BB010008BB01000850
:1000A000BB010008BB010008BB010008BB01000840
:1000B000BB010008BB010008BB010008BB01000830
:1000C000BB010008BB010008BB010008BB01000820
:1000D000BB01000829080008BB010008BB0100089B
:1000E000BB010008BB010008BB010008BB01000800
:1000F000BB010008BB010008BB010008BB010008F0
:10010000BB010008BB010008BB010008BB010008DF
:10011000BB010008BB010008BB010008BB010008CF
:10012000BB010008BB010008BB010008BB010008BF
:10013000BB010008BB010008BB010008BB010008AF
:10014000BB010008BB010008BB010008BB0100089F
:10015000BB010008BB010008BB010008BB0100088F
:10016000BB010008BB010008BB010008BB0100087F
:10017000BB010008BB010008BB010008BB0100086F
:10018000BB010008BB010008DFF810D000F01AF82E
:10019000004800471D0C0008AFF3008080040020D9
:1001A0000648804706480047FEE7FEE7FEE7FEE711
:1001B000FEE7FEE7FEE7FEE7FEE7FEE7C107000811
:1001C00089010008064C074D06E0E06840F0010395
:1001D00094E8070098471034AC42F6D3FFF7D8FFF5
:1001E0008C0D0008AC0D000800BFFEE77047F0B5AD
:1001F0000A4600210023002400BF3DE0012505FA46
:1002000001F3156805EA03049C4234D105684F00E8
:100210000326BE40B543056015794E00B54006681B
:10022000354305601579012D02D01579022D16D1BF
:1002300085684F000326BE40B543856055794E0062
:10024000B540866835438560456801268E40B543D4
:100250004560456896798E40B6B235434560C568BD
:100260004F000326BE40B543C560D5794E00B5406A
:10027000C6683543C560491C1029BFD3F0BDF0B531
:10028000002300244D07ED0E02FA05F3CE1000F115
:10029000200555F826504E07F70E0F26BE40B543F1
:1002A000CF1000F1200646F82750CE1000F12005AF
:1002B00055F8265045EA0304CE1000F1200545F814
:1002C0002640F0BD4FF6FF710160002101714171C0
:1002D0008171C171704700BFFEE721B1028842F011
:1002E0000102028004E002884FF6FE731A40028089
:1002F000704700001CB50121480500F01FF90121DD
:10030000022000F00BF9042208211148FFF7B7FF83
:10031000042209210E48FFF7B2FF4FF480700090CD
:1003200002208DF804008DF8050001208DF80600EC
:1003300000208DF8070069460548FFF758FF4FF485
:100340000070009069460248FFF751FF1CBD000095
:10035000000402402DE9FF4704460D460026B14641
:100360000427DFF8CC80A6884FF6C07006406846A8
:1003700000F024F9DDF808802E48B8FBF0F01FFAF1
:1003800080F946EA0906A68020884FF6FE710840EB
:10039000208000262849286888420CD82868400018
:1003A000B8FBF0F087B2042F00DA04273E4309F1CE
:1003B0000100208427E0E8884BF6FF71884206D1CF
:1003C000286800EB4000B8FBF0F087B209E028682D
:1003D00000EBC00101EB0010B8FBF0F087B247F46E
:1003E0008047C7F30B0008B947F0010747F4004006
:1003F00006434FF4967009FB00F04FF47A7190FBBE
:10040000F1F0401C2084A683208840F00100208069
:1004100026884FF6F5300640A888698908430643C8
:100420002680A889298908432081BDE8FF8700002C
:1004300000127A0040420F00A08601001FB5064B53
:100440000FCB8DE80F0069460448FFF783FF0121B9
:100450000248FFF742FF1FBD7C0D0008005400401A
:1004600000BFFEE7704708B54FF4A06000F04AF8FF
:1004700025208DF8000001208DF801008DF8020084
:100480008DF80300684600F001F808BD70B5002142
:1004900000230F22C4781CB3174C246804F4E064D2
:1004A000C4F5E064C4F30721C1F10404E3B20A41D6
:1004B00044789C40E1B28478144021430C07210E1B
:1004C0000E4C05786155047804F01F050124AC40FA
:1004D00005786D11AD0005F1E025C5F8004109E092
:1004E000047804F01F050124AC40054D0678761110
:1004F00045F8264070BD00000CED00E000E400E08F
:1005000080E100E002490143024A116070470000A7
:100510000000FA050CED00E07047000029B1064A22
:1005200012680243044B1A6004E0034A12688243D3
:10053000014B1A60704700003038024029B1064A6A
:1005400012680243044B1A6004E0034A12688243B3
:10055000014B1A60704700004038024029B1064A3A
:1005600012680243044B1A6004E0034A1268824393
:10057000014B1A60704700002038024029B1064A3A
:1005800012680243044B1A6004E0034A1268824373
:10059000014B1A60704700004438024029B1064AF6
:1005A00012680243044B1A6004E0034A1268824353
:1005B000014B1A607047000024380240F0B500215A
:1005C00000220024022500260223324F3F6807F054
:1005D0000C0121B1042905D0082937D105E02E4F9F
:1005E000076036E02D4F076033E02A4F3F1F3F681A
:1005F000C7F38056274F3F1F3F6807F03F036EB198
:10060000264FB7FBF3F7DFF88CC0ACF1040CDCF835
:1006100000C0CCF3881C07FB0CF40CE01E4FB7FBAA
:10062000F3F7DFF870C0ACF1040CDCF800C0CCF3D9
:10063000881C07FB0CF4174F3F1F3F68C7F30147A7
:100640007F1C7D00B4FBF5F7076002E0124F0760E6
:1006500000BF00BF0F4F3F6807F0F0010909104FBE
:100660007A5C0768D74047600A4F3F6807F4E0515B
:10067000890A0B4F7A5C4768D7408760054F3F680F
:1006800007F46041490B064F7A5C4768D740C76062
:10069000F0BD0000083802400024F40000127A0087
:1006A00000000020704700000CB500200190009071
:1006B0003448006840F480303249086000BF314857
:1006C000006800F4003000900198401C01900098F0
:1006D00018B90198B0F5A04FF1D12A48006800F48C
:1006E000003010B10120009001E00020009000983F
:1006F000012846D123484030006840F0805021490D
:10070000403108602048006840F440401E490860BD
:100710001C48083000681B4908310860084600681A
:1007200040F4004008600846006840F4A0500860AB
:100730001648091F0860081F006840F08070091FF4
:10074000086000BF0F48006800F000700028F9D072
:1007500040F205700E4908600A480830006820F031
:1007600003000849083108600846006840F00200AC
:10077000086000BF03480830006800F00C0008283B
:10078000F8D10CBD0038024000700040085440070A
:10079000003C0240042808D14FF0E021096941F0F3
:1007A00004014FF0E022116107E04FF0E0210969F8
:1007B00021F004014FF0E022116170477047000002
:1007C00010B51548006840F47000134908601348DC
:1007D000006840F001001149086000200F4908310D
:1007E00008600E4800680E4908400C4908600D4832
:1007F000091D0860081F006820F48020091F086098
:10080000002006490C310860FFF74EFF4FF00060F2
:1008100001498039086010BD88ED00E000380240D1
:10082000FFFFF6FE1030002410B540F225511348AA
:1008300000F0C3F880B1114800F078F9C1B2104857
:1008400042680830815408384068401C0C494860B0
:10085000622801D90020486040F22441074800F096
:10086000ACF850B1054800F061F900210448426835
:100870000830815401200249086010BD0010014079
:100880001400002001F40072B2F5007F00D100BF17
:10089000CA430280704721B1828942F400528281AA
:1008A00004E082894DF6FF731A4082817047000090
:1008B00010B504463248844208D101211020FFF7C8
:1008C0006DFE00211020FFF769FE57E02D4884429D
:1008D00009D101214804FFF741FE00214FF4003007
:1008E000FFF73CFE4AE02848844209D101218804F0
:1008F000FFF734FE00214FF48020FFF72FFE3DE08C
:100900002248844209D10121C804FFF727FE0021B3
:100910004FF40020FFF722FE30E01D48844209D149
:1009200001210805FFF71AFE00214FF48010FFF7A0
:1009300015FE23E01748844208D101212020FFF74B
:100940002DFE00212020FFF729FE17E012488442E7
:1009500009D101218807FFF701FE00214FF08040F7
:10096000FFF7FCFD0AE00D48844207D10121400554
:10097000FFF7F4FD00216005FFF7F0FD10BD00005A
:10098000001001400044004000480040004C00407E
:10099000005000400014014000780040007C0040FE
:1009A00002460020B1F5007F00D100BF13880B4044
:1009B0000BB1012000E00020704770B50246002412
:1009C00000230025002040F66A16B14200D100BF86
:1009D000C1F3421501F01F03012606FA03F3012DAE
:1009E00002D19689334006E0022D02D1168A3340A7
:1009F00001E0968A33400C12012606FA04F41688A8
:100A0000344013B10CB1012000E0002070BDF0B5FE
:100A10000346002400260025002040F66A17B9424C
:100A200000D100BF1846C1F3421401F01F06012790
:100A300007FA06F5012C01D10C3004E0022C01D19B
:100A4000103000E014301AB107682F43076002E04D
:100A50000768AF430760F0BD2DE9FF4705460E4626
:100A60000024A14600BFA046B08900B100BF2C8A77
:100A700024F44054F08804432C82AC8941F20C6089
:100A80008443B08831890843718908430443AC81A9
:100A9000AC8A24F44074B0890443AC826846FFF702
:100AA0008DFD2048854202D01F48854202D1DDF8E5
:100AB0000C9001E0DDF80890A88900F4004040B1F6
:100AC00009EBC90000EB091031684900B0FBF1F7F0
:100AD00007E009EBC90000EB091031688900B0FBA1
:100AE000F1F76420B7FBF0F004012009642101FB59
:100AF0001078A88900F4004040B1322000EBC80013
:100B0000B0FBF1F000F00700044308E0322000EBF6
:100B100008106421B0FBF1F000F00F0004432C81B9
:100B2000BDE8FF870010014000140140014688889D
:100B3000C0F308007047C1F30802828070474FF489
:100B40001651016000218180C18001810C21418109
:100B500000218181704700BFFEE710B5FFF7CAFB97
:100B6000FFF76CFC10BD0000014A024900F013B809
:100B7000F90B00081000002002E008C8121F08C18D
:100B8000002AFAD170477047002001E001C1121F0E
:100B9000002AFBD170472DE9F04116460F46044666
:100BA000002503E03946B047641C6D1C20780028FE
:100BB000F8D12846BDE8F08110B54FF00060084933
:100BC00008600420FFF7E6FD4FF6FF704FF0E021CC
:100BD00048610846006940F00100086110BD00004E
:100BE00008ED00E010B5044604F1080000F0AAF892
:100BF00000202060606010BD70B504460D46E1B273
:100C00000548FFF798FF00BF80210348FFF7C8FEA3
:100C10000028F9D0204670BD00100140FFF7CCFF3E
:100C20004FF4E13000F018F8FFF797FF05A0FFF749
:100C30009BFF06E007480068012802D10548FFF73E
:100C4000D1FFF7E7555341525420496E6974212171
:100C50000D0A00001400002010B586B004460121E2
:100C60000846FFF75BFC072209213448FFF707FB22
:100C700007220A213148FFF702FB04A8FFF722FBF5
:100C80004FF40070049002208DF8140003208DF8BA
:100C9000150000208DF8160001208DF8170004A91A
:100CA0002648FFF7A4FA04A8FFF70CFB4FF4806076
:100CB000049002208DF8140003208DF81500002008
:100CC0008DF8160001208DF8170004A91B48FFF7C6
:100CD0008EFA01211020FFF751FC1948FFF7E8FDBB
:100CE0006846FFF72CFF00940020ADF80400ADF833
:100CF0000600ADF808000C20ADF80A000020ADF8A1
:100D00000C0069460E48FFF7A7FE20210C48FFF7AC
:100D1000B9FDFFF7A8FB012240F225510848FFF773
:100D200076FE012240F224410548FFF770FE0121C2
:100D30000348FFF7B0FD06B010BD00000000024000
:100D40000010014010B5044603E014F8010B00F058
:100D500005F814B120780028F7D110BD10B504466D
:100D600021460548FFF7E7FE00BF80210248FFF754
:100D700017FE0028F9D010BD00100140801A0600AF
:100D80000000FFBF0A00000400400000AC0D000896
:100D90000000002014000000780B0008C00D0008BF
:100DA000140000206C040000880B00080000000004
:100DB0000102030401020304060708090000000001
:040000050800018965
:00000001FF
