:020000040800F2
:10000000FFFF012021490008EB470008F9470008DD
:1000100001480008094800081148000800000000D5
:100020000000000000000000000000001948000867
:100030002748000800000000354800081149000862
:1000400071490008714900087149000871490008A8
:100050007149000871490008714900087149000898
:100060007149000871490008714900087149000888
:100070007149000871490008714900087149000878
:1000800071490008C5480008714900087149000815
:100090007149000871490008714900087149000858
:1000A0007149000871490008714900087149000848
:1000B0007149000871490008714900087149000838
:1000C0007149000871490008714900087149000828
:1000D0007149000871490008454800087149000845
:1000E0007149000871490008714900087149000808
:1000F00071490008714900087149000871490008F8
:1001000071490008714900087149000871490008E7
:1001100071490008714900087149000871490008D7
:1001200071490008714900087149000871490008C7
:1001300071490008714900087149000871490008B7
:1001400071490008714900087149000871490008A7
:100150007149000871490008714900087149000897
:100160007149000871490008714900087149000887
:100170007149000871490008ED48000800000000BE
:080180007149000871490008F3
:1001900001F0FF01102A2BDB10F0070F08D010F838
:1001A000013B013A8B422DD010F0070F42B3F6D13C
:1001B000F0B441EA012141EA014122F007047FF055
:1001C00000070023F0E80256083C85EA010586EAAC
:1001D000010685FA47F5A3FA87F586FA47F6A5FAE8
:1001E00087F68EB9EED1F0BC01F0FF0102F00702F4
:1001F00032B110F8013B013A83EA010313B1F8D19F
:100200000020704701387047002D06BF354603387F
:10021000073815F0010F07D1013015F4807F02BFB8
:10022000013015F4C03F0130F0BC0138704700BF09
:100230000348044B834202D0034B03B11847704775
:100240006000002060000020000000000548064B10
:100250001B1AD90F01EBA301491002D0034B03B1C4
:100260001847704760000020600000200000000078
:1002700010B5064C237843B9FFF7DAFF044B13B1EE
:100280000448AFF300800123237010BD60000020FC
:1002900000000000E451000808B5054B1BB10549FA
:1002A0000548AFF30080BDE80840FFF7CFBF00BFAF
:1002B0000000000064000020E4510008002310B595
:1002C0000446C0E90033C0E904338360818143669A
:1002D000C2818361194608225C3000F0F7F80D4BAB
:1002E00063620D4BA3620D4BE3620D4B23630D4B19
:1002F00024629C4206D003F16802944202D0D033BB
:100300009C4205D104F15800BDE8104000F050B9FE
:1003100010BD00BF45040008670400089F040008E2
:10032000C50400087C000020024A0349034800F08D
:100330006BB800BF00000020AD08000810000020CE
:1003400041680C4B994210B5044601D000F0AEFA5A
:10035000A168094B994202D0204600F0A7FAE16853
:10036000064B994204D02046BDE8104000F09EBAEA
:1003700010BD00BF7C000020E40000204C010020E4
:100380000C4B0D4A0D4810B504211A600022FFF7EE
:1003900095FF0A4B01221C46092103F16800FFF773
:1003A0008DFF04F1D0000222BDE810401221FFF7BA
:1003B00085BF00BFB4010020290300087C00002095
:1003C000014800F0F6B800BFBD010020014800F070
:1003D000F1B800BFBD01002010B50446FFF7F0FFE3
:1003E000236A1BB1BDE81040FFF7F0BF044B236246
:1003F000044B1B68002BF5D1FFF7C2FFF2E700BFEB
:1004000041030008B40100202DE9F843074688465F
:1004100014460026D4E90195B9F1010905D52468EF
:10042000002CF7D13046BDE8F883AB89012B07D902
:10043000B5F90E30013303D029463846C04706438C
:100440006835E9E710B50C46B1F90E1000F068F810
:100450000028ABBF636DA3891B1823F48053ACBF86
:100460006365A38110BD2DE9F0411F468B89DB0533
:1004700005460C46164605D5B1F90E10022300229A
:1004800000F03CF8A389B4F90E1023F48053A38143
:1004900032463B462846BDE8F04100F053B810B55F
:1004A0000C46B1F90E1000F029F8B4F90C30421CDA
:1004B0000BBF23F4805343F48053A381A38118BF5F
:1004C000606510BDB1F90E1000F008B80244034693
:1004D000934200D1704703F8011BF9E738B5064D88
:1004E0000023044608462B6004F04EFE431C02D154
:1004F0002B6803B1236038BDB801002038B5074D23
:1005000004460846114600222A601A4604F04CFEB2
:10051000431C02D12B6803B1236038BDB801002011
:1005200038B5074D04460846114600222A601A468F
:1005300004F042FE431C02D12B6803B1236038BD96
:10054000B801002038B5074D044608461146002280
:100550002A601A4602F0A4FC431C02D12B6803B1A6
:10056000236038BDB801002070B50D4B0D4D5B1BED
:100570009C100026A64209D104F034FE0A4D0B4B14
:100580005B1B9C100026A64205D170BD55F8043BAC
:1005900098470136EEE755F8043B98470136F2E7F5
:1005A0008C5700088C5700088C570008905700089B
:1005B000704770477047000038B50546002941D0A4
:1005C00051F8043C0C1F002BB8BFE41800F0E0F811
:1005D0001D4A136833B9636014602846BDE838408B
:1005E00000F0DCB8A34208D9206821188B4201BF73
:1005F00019685B6809182160EDE71A465B680BB162
:10060000A342FAD911685018A0420BD120680144C6
:10061000501883421160E0D118685B685360084449
:100620001060DAE702D90C232B60D6E72068211886
:100630008B4204BF19685B68636004BF09182160BE
:100640005460CAE738BD00BFC401002070B50F4E2A
:100650000C463168054611B900F050F9306021466A
:10066000284600F04BF9431C03D14FF0FF342046DD
:1006700070BDC41C24F00304A042F8D0211A2846FF
:1006800000F03CF90130F2D1EFE700BFC0010020DB
:100690002DE9F843CD1C25F0030508350C2D38BF96
:1006A0000C25002D064601DBA94204D90C2333603A
:1006B0000020BDE8F883DFF8D48000F069F8D8F8AE
:1006C00000301C4644BB29463046FFF7BFFF431CA1
:1006D000044658D1D8F800402746002F43D1002CBB
:1006E0004BD023683946304604EB030900F006F985
:1006F000814542D121686D1A29463046FFF7A6FF91
:1007000001303AD023682B442360D8F800305A686F
:1007100062BBC8F800700FE02268521B20D40B2A7D
:1007200017D96119A342256018BF5960636808BFD3
:10073000C8F8001062514B60304600F02FF804F109
:100740000B00231D20F00700C21A1CBF1B1AA35068
:10075000AFE76268A3420CBFC8F800205A60EBE71D
:1007600023466468AEE73C467F68B6E71A465B6896
:10077000A342FBD100235360DEE70C2333603046F5
:1007800000F00CF894E70560D6E700BFC401002034
:100790000148FFF70EBF00BFBC0100200148FFF772
:1007A00009BF00BFBC010020B1F90C202DE9F041C8
:1007B000160705460C4651D44B68002B02DC0B6C27
:1007C000002B49DDE66A002E46D0002312F4805249
:1007D0002F682B6031D0626DA389590705D56368F6
:1007E000D21A636B0BB1236CD21A0023E66A216A1A
:1007F0002846B047421CB4F90C3006D129681D299F
:1008000046D8294ACA40D60742D500226260D90498
:100810002269226004D5421C01D12B6803B96065AE
:10082000616B2F60C1B104F14403994202D02846A4
:10083000FFF7C2FE002363630EE0216A012328460E
:10084000B0470246501CC7D12B68002BC4D01D2BCB
:1008500001D0162B1AD12F6000201EE00F69002F47
:10086000FAD093070E6808BF4B690F6018BF0023CA
:10087000A6EB07088B60B8F1000FEDDD216AA66AD0
:1008800043463A462846B047002808DCB4F90C3005
:1008900043F04003A3814FF0FF30BDE8F0810744EF
:1008A000A8EB0008E7E700BF0100402038B50B695E
:1008B00005460C4613B90025284638BD18B1036A11
:1008C0000BB9FFF789FDB4F90C30002BF3D0626E41
:1008D000D00704D4990502D4A06DFFF76AFE28461C
:1008E0002146FFF761FF636EDA070546E4D4A3896A
:1008F0009B05E1D4A06DFFF75DFEDDE738B5064D41
:100900000023044608462B6004F05EFC431C02D121
:100910002B6803B1236038BDB801002080B582B0D8
:1009200000AF0121172003F089FB80233B600223E5
:100930003B7103237B710023BB710123FB713B4699
:100940001946554802F086FF0D220721524803F050
:1009500062F810233B603B461946504802F07AFF8C
:100960000D2204214D4803F056F840233B603B46DE
:1009700019464A4802F06EFF0D220621474803F04F
:100980004AF840233B603B461946454802F062FF67
:100990000D220621424803F03EF880233B603B468F
:1009A00019463F4802F056FF0D2207213C4803F04C
:1009B00032F84FF480733B603B461946384802F0EA
:1009C00049FF0D220821364803F025F84FF4007343
:1009D0003B603B461946324802F03CFF0D2209219C
:1009E0002F4803F018F810233B603B4619462D486A
:1009F00002F030FF0D2204212A4803F00CF84023B6
:100A00003B603B461946244802F024FF0D22062194
:100A1000214803F000F820233B603B46194621485B
:100A200002F018FF0D2205211E4802F0F4FF4023BA
:100A30003B603B4619461B4802F00CFF0D22062185
:100A4000184802F0E8FF01233B7100237B7100236B
:100A5000BB710123FB7180233B603B461946114863
:100A600002F0F8FE4FF480733B603B4619460D4898
:100A700002F0F0FE80210B4802F095FF802109482A
:100A800002F0A0FF4FF48071064802F08CFF00BF17
:100A90000837BD4680BD00BF000402400000024090
:100AA000000802400010024080B584B000AF012170
:100AB000012003F0E3FA02F05FFB00233B800023F8
:100AC0007B8000237B810023BB812023BB8000230C
:100AD000FB8000233B813B46184602F06BFB012064
:100AE00002F0A8FB0121012002F0E0FB00BF10375B
:100AF000BD4680BD80B500AFFFF710FFFFF7D4FF04
:100B000000BF80BD80B590B000AF01214FF48000E0
:100B100003F094FA214802F01DFC00BF1F4802F0C8
:100B200093FD0346002BF9D14FF000737B601C4B03
:100B3000BB601C4BFB6000233B6101237B610023F6
:100B4000BB610023FB614FF480533B624FF40053C1
:100B50007B624FF48073BB624FF40033FB6204236B
:100B60003B6303237B634FF08073BB630023FB6312
:100B70003B1D1946094802F0C1FC0121074802F05B
:100B800015FD00BF054802F05FFD0346012BF9D1BA
:100B900000BF00BF4037BD4680BD00BF2864024093
:100BA000280005500C30014080B582B000AF0346EC
:100BB0000A46FB711346BB71BA79FB79194660206E
:100BC00000F0EEFD0346DBB218460837BD4680BD97
:100BD00080B584B000AF03460A46FB801346BB8055
:100BE000FB8803F003039BB2002B01D0012342E0FA
:100BF000BB8803F003039BB2002B01D002233AE031
:100C0000FB889B08FB81BB889B08BB810021FF20E0
:100C1000FFF7CAFF0421E020FFF7C6FF00215020A4
:100C2000FFF7C2FFFB89DBB219465A20FFF7BCFF72
:100C3000BB89DBB219465B20FFF7B6FFFB891B0AB5
:100C40009BB2DBB203F00303FB72BB899B099BB22F
:100C50005BB203F004035AB297F90B3013435BB253
:100C6000FB72FB7A19465C20FFF79EFF0021E02013
:100C7000FFF79AFF002318461037BD4680BD0000DD
:100C800080B582B000AF4FF480711C4802F08BFE3B
:100C900000237B601AE01A4A7B6812F81320184977
:100CA0007B685B000B445B7819461046FFF77CFFBE
:100CB0000346FB70FB78002B05D10421114802F09C
:100CC00072FE002316E07B6801337B607B68B62BE5
:100CD000E1D94FF48C714FF47070FFF779FF034640
:100CE000FB70FB78002B04D0074803F043FE002381
:100CF00000E0012318460837BD4680BD00100240C1
:100D00009855000800040240FC51000880B500AF6F
:100D1000FFF7F0FEFFF7F6FE0123184680BD000046
:100D200080B582B000AF0121052003F087F93B4672
:100D3000184602F01EFE04233B6000237B71012352
:100D40003B710023BB710023FB713B4619462248CF
:100D500002F080FD3B46184602F00BFE10233B607C
:100D600000237B7101233B710023BB710023FB71C6
:100D70003B461946194802F06DFD3B46184602F005
:100D8000F8FD02233B6000237B7101233B710023AC
:100D9000BB710023FB713B4619460F4802F05AFD18
:100DA000002202210C4802F01DFE642000F0D0FB5E
:100DB00001220221084802F015FE642000F0C8FB61
:100DC00001220421044802F00DFE642000F0C0FB63
:100DD00000BF0837BD4680BD000002400008024049
:100DE00080B584B000AF0346FB7100224FF4007160
:100DF0001F4802F0F7FD4FF6FF73FB810FE0FB8900
:100E00005A1EFA81002B0AD11A4803F0B3FD0122C1
:100E10004FF40071164802F0E5FD002323E00221A3
:100E2000154803F05AFA0346002BE8D0FB799BB231
:100E30001946114803F042FA00BF02210E4803F0A0
:100E40004CFA0346002BF8D000BF80210A4803F07B
:100E500044FA0346012BF8D001224FF400710448F4
:100E600002F0C0FD012318461037BD4680BD00BF0B
:100E7000001002401C5200080030014080B584B0D0
:100E800000AF0346FB710023FB73002210210948C9
:100E900002F0A8FDFB791846FFF7A2FF0346FB739B
:100EA00001221021034802F09DFDFB7B18461037FC
:100EB000BD4680BD0008024080B584B000AF034647
:100EC000FB710023FB73FB791846FFF789FF03468C
:100ED000FB73FB7B18461037BD4680BD80B582B0E2
:100EE00000AF0346FB800021224803F0ABF94FF42A
:100EF0000061204803F0C6F901211E4803F0A2F961
:100F000000224FF400711C4802F06CFD00BF02216A
:100F1000184803F0E2F90346002BF8D0FB88194685
:100F2000144803F0CBF900BF0221124803F0D5F9B1
:100F30000346002BF8D000BF80210E4803F0CDF906
:100F40000346012BF8D001224FF400710A4802F049
:100F500049FD0021074803F075F90021054803F019
:100F600091F90121034803F06DF900BF0837BD4630
:100F700080BD00BF003001400010024080B582B04B
:100F800000AF03463960FB800021254803F05AF981
:100F90004FF40061224803F075F90121204803F065
:100FA00051F900224FF400711E4802F01BFD00BFF2
:100FB00002211B4803F091F90346002BF8D00CE006
:100FC000FB881946164803F079F900BF022114483E
:100FD00003F083F90346002BF8D03B685A1E3A60B1
:100FE000002BEDD100BF80210D4803F076F90346B8
:100FF000012BF8D001224FF400710A4802F0F2FCF4
:101000000021074803F01EF90021054803F03AF9D2
:101010000121034803F016F900BF0837BD4680BD23
:10102000003001400010024080B500AFFFF778FEAD
:101030001120FFF723FF782000F08AFA3620FFF70F
:101040001DFFC020FFF738FF3A20FFF717FF0520EC
:10105000FFF732FFB220FFF711FF0C20FFF72CFF44
:101060000C20FFF729FF0020FFF726FF3320FFF7B2
:1010700023FF3320FFF720FFB720FFF7FFFE3520C7
:10108000FFF71AFFBB20FFF7F9FE3220FFF714FF2E
:10109000C220FFF7F3FE0120FFF70EFFC320FFF78A
:1010A000EDFE1520FFF708FFC420FFF7E7FE202024
:1010B000FFF702FFC620FFF7E1FE0F20FFF7FCFE5F
:1010C000D020FFF7DBFEA420FFF7F6FEA120FFF7FC
:1010D000F3FEE020FFF7D2FED020FFF7EDFE082060
:1010E000FFF7EAFE0E20FFF7E7FE0920FFF7E4FE18
:1010F0000920FFF7E1FE0520FFF7DEFE3120FFF7B4
:10110000DBFE3320FFF7D8FE4820FFF7D5FE17207F
:10111000FFF7D2FE1420FFF7CFFE1520FFF7CCFE1D
:101120003120FFF7C9FE3420FFF7C6FEE120FFF7AC
:10113000A5FED020FFF7C0FE0820FFF7BDFE0E2061
:10114000FFF7BAFE0920FFF7B7FE0920FFF7B4FE4C
:101150001520FFF7B1FE3120FFF7AEFE3320FFF779
:10116000ABFE4820FFF7A8FE1720FFF7A5FE1420CE
:10117000FFF7A2FE1520FFF79FFE3120FFF79CFE30
:101180003420FFF799FE2120FFF778FE2920FFF792
:1011900075FE00BF80BD90B583B000AF0446084621
:1011A00011461A462346FB800346BB800B467B80D4
:1011B00013463B802A20FFF761FEFB881846FFF7A5
:1011C0008DFE7B881846FFF789FE2B20FFF756FE21
:1011D000BB8814339BB21846FFF780FE3B8814335C
:1011E0009BB21846FFF77AFE2C20FFF747FE00BFA0
:1011F0000C37BD4690BD90B583B000AF044608469D
:1012000011461A462346FB800346BB800B467B8073
:1012100013463B803A88BB88D31A7988FA888A1AA1
:1012200002FB03F31A463B8B11461846FFF7A6FE56
:1012300000BF0C37BD4690BD80B592B002AF002311
:1012400087F8373000F028F90121022002F0F6FE7D
:1012500004237B62012387F82830002387F82A3093
:10126000032387F82930002387F82B3007F1240364
:1012700019467F4802F0EEFA01F064FA4FF4E130CB
:1012800001F066FD00F074F901F054FA01F058FD28
:10129000FFF73CFDFFF7C8FE40F21713EF220021D5
:1012A0000020FFF778FF002300934FF48C73F022A7
:1012B00000210020FFF79FFFFFF7E2FC034687F8BD
:1012C000373000216B4802F0BDFF4FF400616948E0
:1012D00002F0D8FF0121674802F0B4FF00224FF46A
:1012E0000071654802F07EFB0121644802F05EF95E
:1012F000012001F09FFF012001F0BAFF00233B61B4
:1013000002E03B6901333B613B69B3F5801FF8DBC9
:10131000F3233B630121102002F090FE8023FB6148
:10132000012387F82030002387F82230002387F834
:101330002130002387F8233007F11C0319464E485B
:1013400002F088FA4E4A07F1140392E8030018608D
:101350000433198002330A0C1A700023FB634AE03D
:1013600007F11402FB6B13441B7887F82F308021A0
:10137000414802F027FB0023FB6002E0FB680133D9
:10138000FB60FB683A6B9A42F8DC0023BB631EE00B
:1013900097F82F20BB6B42FA03F303F00103002BF5
:1013A00004D08021344802F0FEFA03E08021324864
:1013B00002F008FB0023BB6002E0BB680133BB60A6
:1013C000BB683A6B9A42F8DCBB6B0133BB63BB6B07
:1013D000072BDDDD8021284802F0E5FA00237B6041
:1013E00002E07B6801337B607B683A6B9A42F8DCF1
:1013F000FB6B0133FB63FB6B052BB1D9214B1B68E6
:10140000012B2DD11F4B5B68012B09D11E4803F026
:10141000B1FA1C4B00225A601A4B00221A6021E0DC
:101420001A4B1B889BB21946194800F01FF9174B3D
:101430001B889BB21A46134B134400221A7311489F
:1014400001F0BCFB034687F8373097F83730002BA4
:10145000D4D1104803F08EFA002387F83730CDE757
:1014600000BFCBE7002318464037BD4680BD00BF14
:101470000004024000300140001002402864024095
:1014800058520008DC0500202C520008C80100203A
:10149000E80500204452000880B500AF094B4FF02A
:1014A00000629A60042001F04BFE074B4FF6FF727A
:1014B0005A60054B1B68044A43F00103136000BFE8
:1014C00080BD00BF00ED00E010E000E080B487B018
:1014D00000AF786000233B611A4B1B681A4AA2FBDD
:1014E00003239A0C7B6802FB03F3FB60174B9B689A
:1014F0007B61164B9B68BB60BA687B699A42F8D0E7
:10150000BA687B699A4206D27A69BB68D31A3A698B
:1015100013443B6108E00D4B5A68BB68D21A7B69E3
:1015200013443A6913443B61BB687B613A69FB68C9
:101530009A4200D2DDE700BF00BF1C37BD465DF810
:10154000047B70475C00002083DE1B4310E000E05A
:1015500080B582B000AF78607B684FF47A7202FB8E
:1015600003F31846FFF7B2FF00BF0837BD4680BD42
:1015700080B590B000AF01214FF4001002F05EFD85
:10158000354801F0E7FE00BF334802F05DF803463E
:10159000002BF9D14FF000637B60304BBB60304BC8
:1015A000FB6000233B614FF402737B610023BB614E
:1015B0004FF48063FB6100233B6200237B620023C6
:1015C000BB620023FB6200233B6303237B63002396
:1015D000BB630023FB633B1D19461F4801F08EFFD0
:1015E00001211D4801F0E2FF1E4801F0B3FE4FF05B
:1015F00000637B60194BBB601B4BFB6040233B616E
:101600004FF402737B610023BB614FF48063FB6185
:1016100000233B6200237B620023BB624FF48033D4
:10162000FB6200233B6300237B630023BB63002337
:10163000FB633B1D19460B4801F060FF0021094880
:1016400001F0B4FF01221021064802F043F800BF68
:101650004037BD4680BD00BF886002400444004062
:10166000CC010020A0600240D403002080B584B0EB
:1016700000AF78600B467B807B68002B02D07B88B4
:10168000002B02D14FF0FF330FE04FF40273FB81C8
:10169000FA897B889A4201D97B88FB81FB891A46AB
:1016A0000449786803F07EF9FB8918461037BD4677
:1016B00080BD00BFCC01002080B584B000AF786051
:1016C0000B467B807B68002B02D07B88002B02D1ED
:1016D0004FF0FF3333E07B88B3F5027F02D94FF43C
:1016E00002737B807B881A467968174803F05AF9A1
:1016F000164B1B68164AA2FB03235B09FB6008E03C
:10170000FB68013BFB60FB68002B02D16FF001031B
:1017100015E0104801F098FF0346002BF0D10A4B6A
:10172000002219460B4801F079FF7B8819460948C9
:1017300001F058FF0121074801F038FF7B88184667
:101740001037BD4680BD00BFD40300205C000020E0
:101750001F85EB51A060024080B584B000AF034606
:10176000FB710023FB6009E00B4AFB6812F8333081
:10177000FA799A4206D0FB680133FB60FB68062BBE
:10178000F2D900E000BF0121044802F08FFA0023E3
:1017900018461037BD4680BD085700080054004069
:1017A00080B584B000AF0346FB710B46BB71134696
:1017B0007B710121374802F059FA4FF48073FB60C6
:1017C00009E0FB685A1EFA60002B04D10020FFF7E5
:1017D000C3FF03465AE030492E4802F0FAFA0346A6
:1017E000002BEED0FB79002219462A4802F07EFA3F
:1017F0004FF48073FB6009E0FB685A1EFA60002B0F
:1018000004D10120FFF7A8FF03463FE02349214808
:1018100002F0DFFA0346002BEED0BB7919461D48D3
:1018200002F0A2FA4FF48073FB6009E0FB685A1ED5
:10183000FA60002B04D10220FFF78EFF034625E05B
:101840001749144802F0C5FA0346002BEED07B7905
:101850001946104802F088FA4FF48073FB6009E0E3
:10186000FB685A1EFA60002B04D10320FFF774FFB7
:1018700003460BE00A49074802F0ABFA0346002B87
:10188000EED00121034802F011FA01231846103767
:10189000BD4680BD005400400100030082000700E7
:1018A0008400070080B584B000AF3A601A46034652
:1018B000FB710B46BB711346BB80BB88002B01D16B
:1018C00000231FE00023FB8117E0B9794B1CBB719B
:1018D0003B685A1C3A601A78FB791846FFF760FF9C
:1018E00003467B737B7B002B04D1084803F042F84E
:1018F000002307E0FB890133FB81FA89BB889A4208
:10190000E3D37B7B18461037BD4680BD40530008AB
:1019100080B584B000AF3A601A460346FB710B46AF
:10192000BB711346BB804FF42063FB6009E0FB688A
:101930005A1EFA60002B04D10A20FFF70DFF034660
:10194000C3E04FF40031634802F080FA0346002BF5
:10195000EDD101215F4802F089F94FF48073FB60FB
:1019600009E0FB685A1EFA60002B04D10020FFF743
:10197000F3FE0346A9E05849564802F02AFA034606
:10198000002BEED0FB7900221946524802F0AEF946
:101990004FF48073FB6009E0FB685A1EFA60002B6D
:1019A00004D10120FFF7D8FE03468EE04B49494899
:1019B00002F00FFA0346002BEED00121454802F059
:1019C00035F9BB791946434802F0CEF94FF48073DC
:1019D000FB6009E0FB685A1EFA60002B04D104206A
:1019E000FFF7BAFE034670E03D493A4802F0F1F9CC
:1019F0000346002BEED00121364802F037F94FF4B0
:101A00008073FB6009E0FB685A1EFA60002B04D16A
:101A10000020FFF7A1FE034657E02F492D4802F0B2
:101A2000D8F90346002BEED0FB790122194629484C
:101A300002F05CF94FF48073FB6009E0FB685A1E0A
:101A4000FA60002B04D10120FFF786FE03463CE03C
:101A50002449204802F0BDF90346002BEED02CE0CB
:101A6000BB88012B07D100211A4802F05DF9012142
:101A7000184802F01BF94FF42063FB6009E0FB6893
:101A80005A1EFA60002B04D10520FFF765FE0346BD
:101A90001BE015490F4802F09CF90346002BEED0DD
:101AA0000C4802F071F903461A463B681A703B680D
:101AB00001333B60BB88013BBB80BB88002BCFD18F
:101AC0000121044802F030F9012318461037BD46C1
:101AD00080BD00BF005400400100030082000700E9
:101AE00084000700020003004000030080B584B0BA
:101AF00000AF03463A60FB710B46BB714FF42063A5
:101B0000FB6009E0FB685A1EFA60002B04D10A2032
:101B1000FFF722FE0346B6E04FF400315C4802F0C6
:101B200095F90346002BEDD10121594802F09EF8AA
:101B30004FF48073FB6009E0FB685A1EFA60002BCB
:101B400004D10020FFF708FE03469CE051495048AD
:101B500002F03FF90346002BEED0FB790022194634
:101B60004B4802F0C3F84FF48073FB6009E0FB6858
:101B70005A1EFA60002B04D10120FFF7EDFD034649
:101B800081E04549424802F024F90346002BEED09B
:101B900001213F4802F04AF8BB7919463C4802F05F
:101BA000E3F84FF48073FB6009E0FB685A1EFA60AB
:101BB000002B04D10420FFF7CFFD034663E0374933
:101BC000334802F006F90346002BEED001213048DD
:101BD00002F04CF84FF48073FB6009E0FB685A1E7A
:101BE000FA60002B04D10020FFF7B6FD03464AE05F
:101BF0002849274802F0EDF80346002BEED0FB7988
:101C000001221946224802F071F84FF48073FB60FC
:101C100009E0FB685A1EFA60002B04D10120FFF78F
:101C20009BFD03462FE01E49194802F0D2F80346F7
:101C3000002BEED00021164802F076F8012114485E
:101C400002F034F84FF42063FB6009E0FB685A1E91
:101C5000FA60002B04D10520FFF77EFD034612E059
:101C600010490B4802F0B5F80346002BEED00848A7
:101C700002F08AF803461A463B681A7001210448AC
:101C800002F052F8012318461037BD4680BD00BF50
:101C90000054004001000300820007008400070098
:101CA000020003004000030080B584B000AF03468B
:101CB000FB710B46BB801346BB710121464801F006
:101CC000D5FF4FF48073FB6009E0FB685A1EFA6091
:101CD000002B04D10020FFF73FFD034678E03F4989
:101CE0003D4802F076F80346002BEED0FB79002247
:101CF0001946394801F0FAFF4FF48073FB6009E0A0
:101D0000FB685A1EFA60002B04D10120FFF724FD66
:101D100003465DE03249304802F05BF80346002B91
:101D2000EED0BB881B0A9BB2DBB219462A4802F0F0
:101D30001BF84FF48073FB6009E0FB685A1EFA60E1
:101D4000002B04D10220FFF707FD034640E02549A0
:101D5000214802F03EF80346002BEED0BB88DBB2F0
:101D600019461D4802F000F84FF48073FB6009E04B
:101D7000FB685A1EFA60002B04D10220FFF7ECFC2E
:101D8000034625E01749144802F023F80346002BC8
:101D9000EED0BB791946104801F0E6FF4FF480738E
:101DA000FB6009E0FB685A1EFA60002B04D1032097
:101DB000FFF7D2FC03460BE00A49074802F009F896
:101DC0000346002BEED00121034801F06FFF0123F1
:101DD00018461037BD4680BD005400400100030086
:101DE000820007008400070080B584B000AF03467E
:101DF0003A60FB710B46BB804FF42063FB6009E047
:101E0000FB685A1EFA60002B04D10A20FFF7A4FCDD
:101E10000346D4E04FF400316B4802F017F8034654
:101E2000002BEDD10121684801F020FF4FF48073B1
:101E3000FB6009E0FB685A1EFA60002B04D1002009
:101E4000FFF78AFC0346BAE060495F4801F0C1FF32
:101E50000346002BEED0FB79002219465A4801F0C8
:101E600045FF4FF48073FB6009E0FB685A1EFA607F
:101E7000002B04D10120FFF76FFC03469FE054497B
:101E8000514801F0A6FF0346002BEED001214E4839
:101E900001F0CCFEBB881B0A9BB2DBB219464A4854
:101EA00001F062FF4FF48073FB6009E0FB685A1E8B
:101EB000FA60002B04D10420FFF74EFC03467EE0BD
:101EC0004449414801F085FF0346002BEED0BB8812
:101ED000DBB219463C4801F047FF4FF48073FB60CA
:101EE00009E0FB685A1EFA60002B04D10420FFF7BA
:101EF00033FC034663E03749334801F06AFF034689
:101F0000002BEED00121304801F0B0FE4FF4807379
:101F1000FB6009E0FB685A1EFA60002B04D1002028
:101F2000FFF71AFC03464AE02849274801F051FF11
:101F30000346002BEED0FB7901221946224801F01E
:101F4000D5FE4FF48073FB6009E0FB685A1EFA600F
:101F5000002B04D10120FFF7FFFB03462FE01E49B1
:101F6000194801F036FF0346002BEED00021164839
:101F700001F0DAFE0121144801F098FE4FF42063CD
:101F8000FB6009E0FB685A1EFA60002B04D10520B3
:101F9000FFF7E2FB034612E010490B4801F019FF7E
:101FA0000346002BEED0084801F0EEFE03461A4629
:101FB0003B681A700121044801F0B6FE012318465F
:101FC0001037BD4680BD00BF005400400100030033
:101FD00082000700840007000200030040000300A5
:101FE00080B586B000AFBA601A460346FB730B4655
:101FF000BB811346FB80FB88002B01D100231FE02F
:102000000023FB8217E0B9894B1CBB81BB685A1CBB
:10201000BA601A78FB7B1846FFF746FE03467B75CD
:102020007B7D002B04D1084802F0A4FC002307E0CC
:10203000FB8A0133FB82FA8AFB889A42E3D37B7DD9
:1020400018461837BD4680BD7053000880B586B06D
:1020500000AFBA601A460346FB730B46BB811346BA
:10206000FB804FF420637B6109E07B695A1E7A6133
:10207000002B04D10A20FFF76FFB0346E1E04FF489
:102080000031724801F0E2FE0346002BEDD1012140
:102090006E4801F0EBFD4FF480737B6109E07B69D2
:1020A0005A1E7A61002B04D10020FFF755FB03462E
:1020B000C7E06749654801F08CFE0346002BEED06F
:1020C000FB7B00221946614801F010FE4FF480733B
:1020D0007B6109E07B695A1E7A61002B04D10120E3
:1020E000FFF73AFB0346ACE05A49584801F071FE4D
:1020F0000346002BEED00121544801F097FDBB8927
:102100001B0A9BB2DBB21946504801F02DFE4FF47A
:1021100080737B6109E07B695A1E7A61002B04D1D0
:102120000420FFF719FB03468BE04B49474801F0B9
:1021300050FE0346002BEED0BB89DBB21946434864
:1021400001F012FE4FF480737B6109E07B695A1E37
:102150007A61002B04D10420FFF7FEFA034670E0F9
:102160003D493A4801F035FE0346002BEED00121EF
:10217000364801F07BFD4FF480737B6109E07B6999
:102180005A1E7A61002B04D10020FFF7E5FA0346BE
:1021900057E02F492D4801F01CFE0346002BEED0DE
:1021A000FB7B01221946294801F0A0FD4FF4807302
:1021B0007B6109E07B695A1E7A61002B04D1012002
:1021C000FFF7CAFA03463CE02449204801F001FE2B
:1021D0000346002BEED02CE0FB88012B07D1002119
:1021E0001A4801F0A1FD0121184801F05FFD4FF4EC
:1021F00020637B6109E07B695A1E7A61002B04D160
:102200000520FFF7A9FA03461BE015490F4801F026
:10221000E0FD0346002BEED00C4801F0B5FD03466F
:102220001A46BB681A70BB680133BB60FB88013B70
:10223000FB80FB88002BCFD10121044801F074FD05
:10224000012318461837BD4680BD00BF005400402A
:102250000100030082000700840007000200030061
:102260004000030080B584B000AF0346FB7101213C
:102270001E4801F0FBFC4FF48073FB600AE0FB6832
:102280005A1EFA60002B05D10020FFF765FA0346BD
:10229000DBB227E01649154801F09BFD0346002BF1
:1022A000EDD0FB7900221946104801F01FFD4FF4D4
:1022B0008073FB600AE0FB685A1EFA60002B05D1B0
:1022C00001210A4801F0F2FC00230BE0094907480C
:1022D00001F07FFD0346002BEDD00121034801F002
:1022E000E5FC012318461037BD4680BD0054004070
:1022F000010003008200070080B582B000AF002318
:10230000FB710123BB7114E0BB795B00DBB21846A3
:10231000FFF7A8FF0346002B08D0BB795B001946E6
:102320000B4802F027FBFB790133FB71BB790133CA
:10233000BB7197F90630002BE6DAFB79002B02D14E
:10234000044802F017FB00BF0837BD4680BD00BF40
:10235000A4530008D853000880B584B000AF0346EA
:10236000FB710023FB810121114801F07FFC142146
:102370000F4801F017FD0346FB81FB790022194647
:102380000B4801F0B3FC1421094801F00BFD034692
:1023900003F00203002BE6D00649054801F089FD51
:1023A0000121034801F082FC00BF1037BD4680BD0B
:1023B000005400400004001080B584B000AF3A60C3
:1023C0001A460346FB710B46BB7113467B714FF4F3
:1023D0002063FB810AE0FB895A1EFA81002B05D19C
:1023E0000A20FFF7B9F90346DBB286E04FF400316B
:1023F000444801F02BFD0346002BECD1012141485C
:1024000001F034FC4FF42063FB810AE0FB895A1E83
:10241000FA81002B05D10020FFF79EF90346DBB2BD
:102420006BE03949374801F0D4FC0346002BEDD06E
:10243000FB7900221946334801F058FC4FF4206321
:10244000FB810AE0FB895A1EFA81002B05D101208D
:10245000FFF782F90346DBB24FE02C49294801F02F
:10246000B8FC0346002BEDD0BB791946254801F096
:102470007BFC4FF42063FB810AE0FB895A1EFA8142
:10248000002B05D10220FFF767F90346DBB234E0E9
:102490001F491C4801F09DFC0346002BEDD01EE0B7
:1024A0003B681B781946174801F05EFC3B68013316
:1024B0003B604FF42063FB810AE0FB895A1EFA81DE
:1024C000002B05D10320FFF747F90346DBB214E0E8
:1024D0000F490C4801F07DFC0346002BEDD07B79C1
:1024E0005A1E7A71002BDBD10121064801F0DEFB78
:1024F000FB791846FFF730FF012318461037BD4619
:1025000080BD00BF005400400100030082000700AE
:102510008400070080B584B000AF3A601A460346D5
:10252000FB710B46BB801346BB7101214E4801F085
:102530009DFB4FF48073FB600AE0FB685A1EFA6053
:10254000002B05D10020FFF707F90346DBB286E038
:102550004649454801F03DFC0346002BEDD0FB7990
:1025600000221946404801F0C1FB4FF48073FB6024
:102570000AE0FB685A1EFA60002B05D10120FFF724
:10258000EBF80346DBB26AE03949374801F021FC39
:102590000346002BEDD0BB881B0A9BB2DBB2194669
:1025A000314801F0E1FB4FF48073FB600AE0FB6807
:1025B0005A1EFA60002B05D10220FFF7CDF8034622
:1025C000DBB24CE02B49284801F003FC0346002B0A
:1025D000EDD0BB88DBB21946234801F0C5FB4FF4B0
:1025E0008073FB600AE0FB685A1EFA60002B05D17D
:1025F0000220FFF7B1F80346DBB230E01D491A486C
:1026000001F0E7FB0346002BEDD01EE03B681B7892
:102610001946154801F0A8FB3B6801333B604FF4B5
:102620002063FB600AE0FB685A1EFA60002B05D1AC
:102630000320FFF791F80346DBB210E00D490A488A
:1026400001F0C7FB0346002BEDD0BB795A1EBA71CF
:10265000002BDBD10121044801F028FB012318469F
:102660001037BD4680BD00BF00540040010003008C
:10267000820007008400070080B582B000AF01210E
:102680004FF4001001F01AFD0121022001F0D6FCE8
:1026900004220821194801F0BEF904220921174833
:1026A00001F0B9F93B46184601F063F94FF4807325
:1026B0003B6002233B7102237B710123BB7100232A
:1026C000FB713B4619460D4801F0C4F83B461846DD
:1026D00001F04FF94FF400733B6002233B7102237A
:1026E0007B710123BB710023FB713B4619460348F4
:1026F00001F0B0F800BF0837BD4680BD00040240BD
:1027000090B585B000AF094B3C460FCB84E80F0075
:102710003B461946064801F0C7F90121044801F07B
:1027200085FA00BF1437BD4690BD00BF04540008B1
:102730000054004080B500AFFFF79EFFFFF7E0FFB9
:1027400000BF80BD80B582B000AF4FF4A06000F044
:1027500081FC26233B7102237B710123BB71012382
:10276000FB713B1D184600F089FC10233B710223CE
:102770007B710223BB710123FB713B1D184600F0E6
:102780007DFC11233B7102237B710323BB71012369
:10279000FB713B1D184600F071FC39233B7101238E
:1027A0007B710323BB710123FB713B1D184600F0B5
:1027B00065FC4E233B7100237B710323BB71012316
:1027C000FB713B1D184600F059FC00BF0837BD46A1
:1027D00080BD80B483B000AF786000BF0C37BD46C9
:1027E0005DF8047B7047000080B588B000AF78606A
:1027F00000237B617B689B78FB747B68DB78BB7410
:102800007B6804331B783B827B685B79FB737B6856
:102810000633BB60FB7C013B062B00F2B08001A2BB
:1028200052F823F041280008512800085F280008CA
:1028300085280008C5280008CB280008E7280008DC
:10284000BB681A78F97BBB7C1846FEF7A9FFA1E0AC
:102850003B8AF97BB87CBA68FFF724F89AE0F97BE9
:10286000BB7CBA681846FFF741F978617B69002B99
:1028700000F08980F97BBB681B781A46474802F054
:1028800079F880E03B8AF97BB87CBA68FFF740F8BA
:1028900078617B69002B78D00023FB830DE0FA7B05
:1028A000FB8BD118FB8BBA6813441B781A463C4843
:1028B00002F060F8FB8B0133FB83FA8B3B8A9A4270
:1028C000EDD362E0FFF718FD64E03B8ADBB2F97BF1
:1028D000B87CBA68FFF770FD0346002B57D031482B
:1028E00002F048F853E03B8A01339BB2F97BB87C95
:1028F000BA68FFF70DF878617B69002B49D02A4B45
:10290000FA2283F82C2101237B770CE07B7F7A6805
:102910001A447B7F1178244A13440A4683F82C21F9
:102920007B7F01337B777B7F052BEFD900237B8374
:102930000DE07B8BBA681A447B8B063311781A4AF8
:1029400013440A4683F82C217B8B01337B833A8A1C
:102950007B8B9A42EDD200233B830AE03B8B124AE9
:10296000134493F82C31184600F06AFA3B8B01337C
:102970003B833B8A9A1D3B8B9A42EFDA09E00B4876
:1029800001F0F8FF06E000BF04E000BF02E000BF76
:1029900000E000BF00BF2037BD4680BD14540008D2
:1029A0004454000874540008DC05002094540008C6
:1029B00080B58AB000AF78600023BB617B689B78EC
:1029C000FB757B68DB78BB757B681B797B757B68E7
:1029D0005B793B757B689B79FB743B7D1BB21B026B
:1029E0001AB2FB7C1BB213431BB23B827B680733DA
:1029F000FB60FB7D013B062B00F2BC8001A252F87C
:102A000023F000BF212A0008312A0008412A0008CB
:102A1000672A0008AB2A0008B12A0008CF2A00085C
:102A2000FB681A78398ABB7D1846FFF73DF9ACE0A0
:102A30007B7D9BB2398AB87DFA68FFF7D1FAA4E0B2
:102A4000398ABB7DFA681846FFF7CEF9B861BB69D1
:102A5000002B00F09380398AFB681B781A464D489A
:102A600001F088FF8AE07B7D9BB2398AB87DFA68E5
:102A7000FFF7ECFAB861BB69002B00F081800023FE
:102A80007B620DE03A8A7B6AD118FA687B6A13444C
:102A90001B781A46404801F06DFF7B6A01337B6268
:102AA0007B7D7A6A9A42EDD36AE0FFF725FC6CE001
:102AB0007B7D398AB87DFA68FFF72CFD0346BB6140
:102AC000BB69002B5ED0354801F054FF5AE07B7D96
:102AD0009BB201339BB2398AB87DFA68FFF7B6FA28
:102AE000B861BB69002B4FD02D4BFA2283F82C2103
:102AF000012387F8233010E097F823307A681A44CE
:102B000097F823301178264A13440A4683F82C217B
:102B100097F82330013387F8233097F82330062BBA
:102B2000EAD900233B840DE03B8CFA681A443B8CC5
:102B3000073311781A4A13440A4683F82C213B8C38
:102B400001333B847A7D3B8C9A42EDDA0023FB8390
:102B50000AE0FB8B124A134493F82C31184600F01C
:102B60006FF9FB8B0133FB837B7DDA1DFB8B9A4274
:102B7000EFDA09E00B4801F0FDFE06E000BF04E0DB
:102B800000BF02E000BF00E000BF00BF2837BD4625
:102B900080BD00BFBC540008EC5400087454000809
:102BA000DC0500201C55000880B483B000AF7860BD
:102BB00000BF0C37BD465DF8047B704780B584B01C
:102BC00000AF78607B681B7BFB737B685B7BBB73B0
:102BD000FB7B552B07D07B6800221A607B680022A4
:102BE0009A6000232EE0BB7B013B032B22D801A27D
:102BF00052F823F0052C0008112C00081D2C0008A9
:102C0000292C00087B680C331846FFF7E2FD12E020
:102C10007B680C331846FFF7E7FD0CE07B680C334C
:102C20001846FFF7C5FE06E07B680C331846FFF731
:102C3000BBFF00E000BF7B6800221A607B680022B7
:102C40009A60012318461037BD4680BD80B582B01A
:102C500000AF0121112001F0F1F9052205212648DC
:102C600000F0D9FE05220721234800F0D4FE3B46A0
:102C7000184600F07EFE20233B6003237B71022375
:102C80003B710023BB710123FB713B4619461A4877
:102C900000F0E0FD3B46184600F06BFE80233B60F1
:102CA00003237B7102233B710023BB710123FB7162
:102CB0003B461946104800F0CDFD3B46184600F053
:102CC00058FE4FF400733B6000237B7101233B717E
:102CD0000023BB710123FB713B461946074800F0F6
:102CE000B9FD01224FF40071044800F07BFE00BFE3
:102CF0000837BD4680BD00BF000002400010024002
:102D0000B0B586B000AF01214FF4805001F0F6F964
:102D1000094B3C1D1D460FCD0FC42B6823803B1D66
:102D20001946064801F04AFA0121044801F08AFADE
:102D300000BF1837BD46B0BD7055000800300140D7
:102D400080B500AFFFF782FFFFF7DAFF00BF80BD5D
:102D500080B588B000AF7860364801F0DBFA012119
:102D60004FF4003001F0AAF90121082001F066F9C2
:102D70000121012001F062F9072205212E4800F00F
:102D80004AFE072203212D4800F045FE07F11803F3
:102D9000184600F0EEFD2023BB6102233B7703239E
:102DA0007B770023BB770123FB7707F118031946D4
:102DB000214800F04FFD07F11803184600F0D9FD37
:102DC0000823BB6102233B7703237B770023BB7778
:102DD0000123FB7707F118031946184800F03AFD64
:102DE0007B68BB600023BB810023FB8100233B8207
:102DF0000C237B820023BB8207F1080319460D4890
:102E000001F014FB012240F224410A4801F02EFC9B
:102E100001228021074801F005FC012240210548DC
:102E200001F000FC0121034801F0BAFB00BF20378C
:102E3000BD4680BD00440040000C0240000002403E
:102E400080B582B000AF0346FB71FB799BB2194697
:102E5000074801F0C5FB00BF8021054801F04EFC8A
:102E60000346002BF8D000BF00BF0837BD4680BD29
:102E70000044004080B483B000AF78607B68002BD2
:102E800005D07B68012B02D07B68022B01D1012386
:102E900000E0002318460C37BD465DF8047B704700
:102EA00080B584B000AFF860B9607A60FB68012B30
:102EB00002D0FB68022B0ED17B689BB21946B86822
:102EC000FEF7FAFB00BF094800F0BEFB0346002BEB
:102ED000F9D17B6806E001F05FFD034609221A6024
:102EE0004FF0FF3318461037BD4680BDA06002404A
:102EF00080B500AF164BD3F88830154A43F4700301
:102F0000C2F88830134B1B68124A43F00103136068
:102F1000104B00229A600F4B1B680E4A23F08473FB
:102F200023F4803313600B4B0B4A5A60094B1B6828
:102F3000084A23F480231360064B0022DA6000F075
:102F40000DF8034B4FF000629A6000BF80BD00BFD8
:102F500000ED00E0003802401030002480B483B05F
:102F600000AF00237B6000233B60364B1B68354A73
:102F700043F480331360334B1B6803F400333B602E
:102F80007B6801337B603B68002B03D17B68B3F522
:102F9000A04FF0D12B4B1B6803F40033002B02D061
:102FA00001233B6001E000233B603B68012B42D1E1
:102FB000244B1B6C234A43F080531364224B1B6841
:102FC000214A43F4404313601E4B1E4A9B689360A2
:102FD0001C4B9B681B4A43F400439360194B9B684E
:102FE000184A43F4A0539360164B184A5A60154B85
:102FF0001B68144A43F08073136000BF114B1B68B9
:1030000003F00073002BF9D0114B40F205721A60E7
:103010000C4B9B680B4A23F003039360094B9B689E
:10302000084A43F00203936000BF064B9B6803F01D
:103030000C03082BF9D100BF0C37BD465DF8047BAB
:10304000704700BF0038024000700040085440073D
:10305000003C024080B483B000AF7860064A7B68D1
:1030600043F0BF6343F40033D36000BF0C37BD4669
:103070005DF8047B704700BF00ED00E080B485B0D0
:1030800000AF78600023FB730023BB730F237B73B7
:103090007B68DB78002B39D0274BDB68DB431B0ACE
:1030A000DBB203F00703FB73FB7BC3F10403BB73C9
:1030B0007A7BFB7B42FA03F37B737B685B781A466F
:1030C000BB7B02FA03F3FB737B689A787B7B13402C
:1030D000DAB2FB7B1343FB73FB7B1B01FB73174AC9
:1030E0007B681B781344FA7B83F800237B681B788A
:1030F00003F01F0311497A6812785209D2B21046C0
:10310000012202FA03F341F820300FE07B681B78BC
:1031100003F01F0309497A6812785209D2B21046A7
:1031200001229A4000F1200341F8232000BF143708
:10313000BD465DF8047B704700ED00E000E100E073
:1031400080B483B000AF78607B68042B06D1094B54
:103150001B68084A43F00403136005E0054B1B6835
:10316000044A23F00403136000BF0C37BD465DF82A
:10317000047B704710E000E080B400AF0C4B0022ED
:103180001A600B4B0022DA60094B1F225A61084B70
:1031900000229A61064B0022DA61054B00221A6276
:1031A000034B00225A6200BFBD465DF8047B7047A6
:1031B0000000055080B485B000AF78600023FB604C
:1031C0001B4B1B681A4A23F4804323F0010313604E
:1031D000174B1B68FB60FB6823F47F6323F002033B
:1031E000FB607B681A887B685B8813439AB27B68B4
:1031F0009B8813439AB27B68DB8813439AB27B683F
:103200001B8913439AB27B685B8913439AB27B682C
:103210009B8913439BB21A46FB681343FB60044A25
:10322000FB68136000BF1437BD465DF8047B704730
:103230000000055080B483B000AF0346FB71FB79FA
:10324000002B06D0094B1B68084A43F480431360E7
:1032500005E0064B1B68054A23F48043136000BF5A
:103260000C37BD465DF8047B704700BF0000055079
:1032700080B483B000AF0346FB71FB79002B06D00E
:10328000094B1B68084A43F00103136005E0064B35
:103290001B68054A23F00103136000BF0C37BD46CD
:1032A0005DF8047B704700BF0000055080B483B018
:1032B00000AF03460A46FB8013467B717B79002BE7
:1032C00006D00B4BDA68FB8809491343CB6008E052
:1032D000074BDB68FA88D24392B21146044A0B408E
:1032E000D36000BF0C37BD465DF8047B704700BF5C
:1032F0000000055080B485B000AF0346FB8000237A
:10330000FB730023BB600A4B1A69FB881340BB6048
:10331000BB68002B02D00123FB7301E00023FB7389
:10332000FB7B18461437BD465DF8047B704700BF31
:103330000000055080B483B000AF0346FB80044A10
:10334000FB88536100BF0C37BD465DF8047B7047B6
:103350000000055080B483B000AF78607B681B68C4
:1033600023F001027B681A607B6800221A607B6888
:1033700000225A607B6800229A607B680022DA6033
:103380007B6800221A617B6821225A617B68464A69
:10339000934203D1454B3D229A607EE07B68444ACC
:1033A000934204D1414B4FF474629A6075E07B689C
:1033B000404A934204D13D4B4FF474129A606CE042
:1033C0007B683D4A934204D1384B4FF074629A6057
:1033D00063E07B68394A934203D1344B384ADA6060
:1033E0005BE07B68374A934203D1304B364ADA6060
:1033F00053E07B68354A934203D12C4B344ADA6060
:103400004BE07B68334A934204D1284B4FF03D5246
:10341000DA6042E07B68304A934203D12F4B3D2271
:103420009A603AE07B682E4A934204D12B4B4FF4CA
:1034300074629A6031E07B682A4A934204D1274B38
:103440004FF474129A6028E07B68274A934204D1B3
:10345000224B4FF074629A601FE07B68234A9342CC
:1034600003D11E4B164ADA6017E07B68204A93426C
:1034700003D11A4B144ADA600FE07B681D4A93426D
:1034800003D1164B124ADA6007E07B681A4A93426E
:1034900003D1124B4FF03D52DA6000BF0C37BD46EE
:1034A0005DF8047B704700BF10600240006002407E
:1034B0002860024040600240586002407060024054
:1034C0003D00002088600240400F0020A0600240C4
:1034D00000003D20B86002401064024000640240D9
:1034E0002864024040640240586402407064024014
:1034F00088640240A0640240B864024080B485B091
:1035000000AF786039600023FB607B681B68FB605C
:10351000FA68254B1340FB603B681A683B68DB6820
:103520001A433B685B691A433B689B691A433B68D3
:10353000DB691A433B681B6A1A433B685B6A1A43A0
:103540003B689B6A1A433B685B6B1A433B689B6B07
:103550001343FA681343FB607B68FA681A607B6860
:103560005B69FB60FB6823F00703FB603B68DA6A7A
:103570003B681B6B1343FA681343FB607B68FA6874
:103580005A613B681A697B685A603B685A687B6875
:103590009A603B689A687B68DA6000BF1437BD4662
:1035A0005DF8047B704700BF3F801CF080B483B09F
:1035B00000AF78600B46FB70FB78002B06D07B6871
:1035C0001B6843F001027B681A6005E07B681B689A
:1035D00023F001027B681A6000BF0C37BD465DF81E
:1035E000047B704780B483B000AF78600B467B806B
:1035F0007A887B685A6000BF0C37BD465DF8047B53
:10360000704780B483B000AF78607B685B689BB222
:1036100018460C37BD465DF8047B704780B485B012
:1036200000AFF860B9607A607B68002B03D0FB685C
:10363000BA681A6102E0FB68BA68DA6000BF143742
:10364000BD465DF8047B704780B485B000AF7860FC
:103650000023FB737B681B6803F00103002B02D07F
:103660000123FB7301E00023FB73FB7B1846143737
:10367000BD465DF8047B704780B485B000AF7860CC
:1036800039607B68104A934202D8104BFB6001E01E
:103690000F4BFB603B6803F00053002B07D03B68E7
:1036A00023F0F02323F08213FA68D36006E03B682E
:1036B00023F0F02323F08213FA68936000BF1437DD
:1036C000BD465DF8047B70470F6402400060024015
:1036D0000064024080B485B000AFF860B960134662
:1036E000FB71BB6803F08003002B0FD0FB79002B2C
:1036F00006D0FB685B6943F08002FB685A6105E015
:10370000FB685B6923F08002FB685A61BB68802B11
:1037100014D0FB79002B08D0FB681A68BB6803F053
:103720001E031A43FB681A6008E0FB681A68BB684E
:1037300003F01E03DB431A40FB681A6000BF143716
:10374000BD465DF8047B704780B487B000AF7860F9
:1037500039600023FB750023FB600023BB607B689E
:10376000224A934202D8224B3B6101E0214B3B614C
:103770003B6823F0F02323F0C313002B0AD03B68EF
:10378000DB0A03F01E03FB607B681B68FA681340CA
:10379000BB6004E07B685B6903F08003BB603B684F
:1037A00003F00053002B03D03B695B68FB6002E031
:1037B0003B691B68FB60FB6823F0F02323F0821356
:1037C000FB60FA683B681340002B05D0BB68002BF8
:1037D00002D00123FB7501E00023FB75FB7D184639
:1037E0001C37BD465DF8047B704700BF0F64024084
:1037F000006002400064024080B485B000AF786091
:1038000039607B68104A934202D8104BFB6001E09C
:103810000F4BFB603B6803F00053002B07D03B6865
:1038200023F0F02323F08213FA68D36006E03B68AC
:1038300023F0F02323F08213FA68936000BF14375B
:10384000BD465DF8047B70470F6402400060024093
:103850000064024080B487B000AF78603960002314
:103860007B6100233B610023FB6000237B6176E0EA
:1038700001227B6902FA03F33B613B681B683A69EA
:103880001340FB60FA683B699A4265D17B681A680D
:103890007B695B00032101FA03F3DB431A407B6879
:1038A0001A607B681A683B681B7919467B695B0064
:1038B00001FA03F31A437B681A603B681B79012BFA
:1038C00003D03B681B79022B2ED17B689A687B69F9
:1038D0005B00032101FA03F3DB431A407B689A6023
:1038E0007B689A683B685B7919467B695B0001FAE3
:1038F00003F31A437B689A607B685A687B699BB2C2
:10390000194601238B40DB431A407B685A607B6871
:103910005B683A68927911467A6992B201FA02F2CA
:1039200092B21A437B685A607B68DA687B699BB203
:103930005B00032101FA03F3DB431A407B68DA6082
:103940007B68DA683B68DB7919467B695B0001FAC2
:1039500003F31A437B68DA607B6901337B617B691F
:103960000F2B85D900BF00BF1C37BD465DF8047B17
:10397000704780B483B000AF78607B684FF6FF7209
:103980001A607B6800221A717B6800225A717B687A
:1039900000229A717B680022DA7100BF0C37BD46A5
:1039A0005DF8047B704780B483B000AF78600B464D
:1039B0007B807A887B689A6100BF0C37BD465DF8D2
:1039C000047B704780B483B000AF78600B467B8087
:1039D0007B881A047B689A6100BF0C37BD465DF88E
:1039E000047B704780B483B000AF78600B467B8067
:1039F00013467B707B78002B03D07A887B689A61B2
:103A000003E07B881A047B689A6100BF0C37BD46CF
:103A10005DF8047B704780B485B000AF78600B46DA
:103A20007B8013467B700023FB600023BB607A78A9
:103A30007B8803F007039B0002FA03F3FB607B889B
:103A4000DB089BB21A467B68083253F822207B8839
:103A500003F007039B000F2101FA03F3DB4379888E
:103A6000C90889B2084602EA03017B6800F108022E
:103A700043F822107B88DB089BB21A467B68083229
:103A800053F82230FA681343BB607B88DB089BB293
:103A90001A467B680832B96843F8221000BF143711
:103AA000BD465DF8047B704780B58AB000AF786092
:103AB00039600023FB8400237B840423BB84574BA1
:103AC000FB617B689B88FB84FB8C23F03F03FB84BA
:103AD00007F10C03184600F003FA7B69FB61FB69F0
:103AE0004F4AA2FB03239B0C7B84FA8C7B8C1343F1
:103AF000FB847B68FA8C9A807B681B889BB223F0DE
:103B000001039AB27B681A800023FB843B681B6820
:103B1000444A934215D83B681B685B00FA69B2FBC4
:103B2000F3F3BB84BB8C032B01D80423BB84FA8C36
:103B3000BB8C1343FB847B8C01339AB27B681A8461
:103B400040E03B68DB884BF6FF72934209D13B684B
:103B50001A6813465B001344FA69B2FBF3F3BB84A3
:103B60000EE03B681A6813469B0013449A00134406
:103B7000FA69B2FBF3F3BB84BB8C43F48043BB8490
:103B8000BB8CC3F30B03002B03D1BB8C43F00103AD
:103B9000BB84BA8CFB8C13439BB26FEA43436FEA3E
:103BA0005343FB847B8C4FF4967202FB03F31E4A53
:103BB00082FB03129211DB17D31A9BB201339AB224
:103BC0007B681A847B68FA8C9A837B681B889BB21B
:103BD00043F001039AB27B681A807B681B88FB84E0
:103BE000FB8C23F4816323F00203FB843B689A88F7
:103BF0003B685B8913439AB2FB8C1343FB847B685D
:103C0000FA8C1A803B689A893B681B8913439AB2E5
:103C10007B681A8100BF2837BD4680BD00127A003C
:103C200083DE1B43A0860100D34D621080B483B0B5
:103C300000AF78600B46FB70FB78002B08D07B68E8
:103C40001B889BB243F001039AB27B681A8007E09D
:103C50007B681B889BB223F001039AB27B681A80B1
:103C600000BF0C37BD465DF8047B704780B483B05D
:103C700000AF78600B46FB70FB78002B08D07B68A8
:103C80001B889BB243F480739AB27B681A8007E06A
:103C90007B681B889BB223F480739AB27B681A807E
:103CA00000BF0C37BD465DF8047B704780B483B01D
:103CB00000AF78600B46FB70FB78002B08D07B6868
:103CC0001B889BB243F400739AB27B681A8007E0AA
:103CD0007B681B889BB223F400739AB27B681A80BE
:103CE00000BF0C37BD465DF8047B704780B483B0DD
:103CF00000AF78600B46FB701346BB70BB78002B9F
:103D000004D0FB7843F00103FB7003E0FB7823F061
:103D10000103FB70FB789AB27B681A8200BF0C37F4
:103D2000BD465DF8047B704780B483B000AF786017
:103D30000B46FB70FB78002B08D07B681B889BB27E
:103D400043F480639AB27B681A8007E07B681B8823
:103D50009BB223F480639AB27B681A8000BF0C3751
:103D6000BD465DF8047B704780B483B000AF7860D7
:103D70000B46FB70FB789AB27B681A8200BF0C3747
:103D8000BD465DF8047B704780B483B000AF7860B7
:103D90007B681B8A9BB2DBB218460C37BD465DF8C8
:103DA000047B704780B485B000AF78600B46FB7031
:103DB0000023FB607B68FB60FA78FB681344FB60C0
:103DC000FB681B889BB218461437BD465DF8047B20
:103DD000704780B487B000AF7860396000233B61E2
:103DE0000023FB600023BB600023FB757B689B8A7C
:103DF0009BB2FB60FB6803F00203002B04D1FB685D
:103E000023F01003002B13D07B681B8B9BB2BB608D
:103E1000BB681B04BB60FA68BB68134323F07F4395
:103E20003B613A693B6813403A689A4202D004E029
:103E3000002305E00123FB7501E00023FB75FB7DFA
:103E400018461C37BD465DF8047B704780B487B0C8
:103E500000AF786039600023FB7500233B610023CD
:103E6000FB607B68FB603B681B0F3B613B6823F09A
:103E70007F433B603B69002B03D0FB681433FB603E
:103E800005E03B681B0C3B60FB681833FB60FB687C
:103E90001A683B681340002B02D00123FB7501E038
:103EA0000023FB75FB7D18461C37BD465DF8047B7F
:103EB000704780B485B000AF786039600023FB6044
:103EC0003B6823F07F43FB60FB689BB2DB439AB205
:103ED0007B689A8200BF1437BD465DF8047B70474B
:103EE00080B489B000AF78600023BB6100237B61A0
:103EF0000023FB6102233B610023FB600223BB60C4
:103F00004A4B9B6803F00C03BB61BB69082B11D0C3
:103F1000BB69082B44D8BB69002B03D0BB69042BB9
:103F200004D03DE07B68424A1A603DE07B68414A2C
:103F30001A6039E03D4B5B689B0D03F00103FB60A9
:103F40003A4B5B6803F03F03BB60FB68002B0CD06F
:103F5000384ABB68B2FBF3F3344A52689209C2F3A1
:103F6000080202FB03F3FB610BE0314ABB68B2FBC2
:103F7000F3F32E4A52689209C2F3080202FB03F3DC
:103F8000FB612A4B5B681B0C03F0030301335B00EE
:103F90003B61FA693B69B2FBF3F27B681A6003E0AC
:103FA0007B68234A1A6000BF204B9B6803F0F00334
:103FB000BB61BB691B09BB611F4ABB6913441B780A
:103FC000DBB27B617B681A687B69DA407B685A6088
:103FD000164B9B6803F4E053BB61BB699B0ABB6152
:103FE000154ABB6913441B78DBB27B617B685A6856
:103FF0007B69DA407B689A600C4B9B6803F46043F2
:10400000BB61BB695B0BBB610B4ABB6913441B788B
:10401000DBB27B617B685A687B69DA407B68DA6077
:1040200000BF2437BD465DF8047B7047003802406E
:104030000024F40040787D014057000880B483B02C
:1040400000AF78600B46FB70FB78002B06D00A4B64
:104050001A6B09497B6813430B6306E0064B1A6B26
:104060007B68DB43044913400B6300BF0C37BD463C
:104070005DF8047B704700BF0038024080B483B015
:1040800000AF78600B46FB70FB78002B06D00A4B24
:104090005A6B09497B6813434B6306E0064B5A6B26
:1040A0007B68DB43044913404B6300BF0C37BD46BC
:1040B0005DF8047B704700BF0038024080B483B0D5
:1040C00000AF78600B46FB70FB78002B06D00A4BE4
:1040D0001A6C09497B6813430B6406E0064B1A6CA3
:1040E0007B68DB43044913400B6400BF0C37BD46BB
:1040F0005DF8047B704700BF0038024080B483B095
:1041000000AF78600B46FB70FB78002B06D00A4BA3
:104110005A6C09497B6813434B6406E0064B5A6CA2
:104120007B68DB43044913404B6400BF0C37BD463A
:104130005DF8047B704700BF0038024080B483B054
:1041400000AF78600B46FB70FB78002B06D00A4B63
:104150001A6A09497B6813430B6206E0064B1A6A28
:104160007B68DB43044913400B6200BF0C37BD463C
:104170005DF8047B704700BF0038024080B483B014
:1041800000AF78600B46FB70FB78002B06D00A4B23
:104190005A6A09497B6813434B6206E0064B5A6A28
:1041A0007B68DB43044913404B6200BF0C37BD46BC
:1041B0005DF8047B704700BF0038024080B485B0D2
:1041C00000AF786039600023FB817B681B88FB812E
:1041D000FB8903F44153FB813B681A883B685B8889
:1041E00013439AB23B689B8813439AB23B68DB88BF
:1041F00013439AB23B681B8913439AB23B685B89AD
:1042000013439AB23B689B8913439AB23B68DB899C
:1042100013439AB2FB891343FB817B68FA891A80A6
:104220007B689B8B9BB223F400639AB27B689A8372
:104230003B681A8A7B681A8200BF1437BD465DF856
:10424000047B704780B483B000AF78600B46FB708E
:10425000FB78002B08D07B681B889BB243F040039F
:104260009AB27B681A8007E07B681B889BB223F0B8
:1042700040039AB27B681A8000BF0C37BD465DF8D8
:10428000047B704780B483B000AF78600B467B80BE
:104290007B681B889BB223F400639AB27B681A8008
:1042A0007B681B889AB27B8813439AB27B681A801A
:1042B00000BF0C37BD465DF8047B704780B483B007
:1042C00000AF78600B467B807B687A889A8100BF5C
:1042D0000C37BD465DF8047B704780B485B000AFF5
:1042E00078600B467B800023FB737B681B899AB246
:1042F0007B8813409BB2002B02D00123FB7301E0AB
:104300000023FB73FB7B18461437BD465DF8047B26
:104310007047000080B582B000AF78607B683B4A90
:10432000934208D101211020FFF728FF002110201F
:10433000FFF724FF65E07B68354A93420AD10121EB
:104340004FF40030FFF7FAFE00214FF40030FFF782
:10435000F5FE56E07B682F4A93420AD101214FF4C3
:104360008020FFF7EBFE00214FF48020FFF7E6FEF0
:1043700047E07B68284A93420AD101214FF400208C
:10438000FFF7DCFE00214FF40020FFF7D7FE38E0F6
:104390007B68224A93420AD101214FF48010FFF733
:1043A000CDFE00214FF48010FFF7C8FE29E07B68A6
:1043B0001B4A934208D101212020FFF7DFFE002194
:1043C0002020FFF7DBFE1CE07B68164A93420AD1EF
:1043D00001214FF08040FFF7B1FE00214FF08040F7
:1043E000FFF7ACFE0DE07B680F4A934209D1012133
:1043F0004FF00040FFF7A2FE00214FF00040FFF712
:104400009DFE00BF0837BD4680BD00BF00100140C3
:104410000044004000480040004C00400050004074
:104420000014014000780040007C004080B58AB054
:1044300000AF7860396000237B6200233B62002379
:10444000FB610023BB617B681B8A9BB27B627B6A3A
:1044500023F440537B623B68DB881A467B6A134334
:104460007B627B6A9AB27B681A827B689B899BB26B
:104470007B627B6A23F4B05323F00C037B623B68BE
:104480009A883B681B8913439AB23B685B89134344
:104490009BB21A467B6A13437B627B6A9AB27B6843
:1044A0009A817B689B8A9BB27B627B6A23F4407310
:1044B0007B623B689B891A467B6A13437B627B6AFB
:1044C0009AB27B689A8207F108031846FFF708FD45
:1044D0007B68304A934203D07B682F4A934202D1D3
:1044E0007B693B6201E03B693B627B689B899BB2D5
:1044F0001BB2002B0CDA3A6A13469B0013449A0055
:104500001A443B681B685B00B2FBF3F3FB610BE0F2
:104510003A6A13469B0013449A001A443B681B688E
:104520009B00B2FBF3F3FB61FB691C4AA2FB032374
:104530005B091B017B627B6A1B09642202FB03F39C
:10454000FA69D31ABB617B689B899BB21BB2002BB3
:104550000CDABB69DB003233104AA2FB03235B0990
:1045600003F007037A6A13437B620BE0BB691B010C
:1045700032330A4AA2FB03235B0903F00F037A6A72
:1045800013437B627B6A9AB27B681A8100BF28372B
:10459000BD4680BD00100140001401401F85EB5155
:1045A00080B483B000AF78600B46FB70FB78002BC3
:1045B00008D07B689B899BB243F400539AB27B6816
:1045C0009A8107E07B689B899BB223F400539AB2DF
:1045D0007B689A8100BF0C37BD465DF8047B70474D
:1045E00080B483B000AF78600B467B807B88C3F3D8
:1045F00008039AB27B689A8000BF0C37BD465DF80D
:10460000047B704780B483B000AF78607B689B8880
:104610009BB2C3F308039BB218460C37BD465DF846
:10462000047B704780B483B000AF78600B467B801A
:1046300013467B707B78002B08D07B689B8A9AB2EC
:104640007B8813439AB27B689A8209E07B689B8AD5
:104650009AB27B88DB439BB213409AB27B689A8202
:1046600000BF0C37BD465DF8047B704780B487B04F
:1046700000AF78600B467B8013467B7000233B6164
:104680000023FB600023BB6000237B617B687B61B0
:104690007B88DBB25B09DBB23B617B8803F01F03E5
:1046A000FB600122FB6802FA03F3BB603B69012B4C
:1046B00003D17B690C337B6109E03B69022B03D199
:1046C0007B6910337B6102E07B6914337B617B780B
:1046D000002B06D07B6919687B69BA680A431A60A7
:1046E00006E07B691968BB68DA437B690A401A6097
:1046F00000BF1C37BD465DF8047B704780B485B0B1
:1047000000AF78600B467B800023FB737B681B88BF
:104710009AB27B8813409BB2002B02D00123FB731B
:1047200001E00023FB73FB7B18461437BD465DF8A0
:10473000047B704780B487B000AF78600B467B8005
:104740000023FB6000237B610023BB600023FB741C
:104750007B88DBB25B09DBB2BB607B8803F01F03A5
:104760007B6101227B6902FA03F37B61BB68012B49
:1047700007D17B689B899BB21A467B6913407B619A
:1047800011E0BB68022B07D17B681B8A9BB21A46DB
:104790007B6913407B6106E07B689B8A9BB21A466B
:1047A0007B6913407B617B881B0A9BB2FB60012203
:1047B000FB6802FA03F3FB607B681B889BB21A4616
:1047C000FB681340FB607B69002B05D0FB68002B66
:1047D00002D00123FB7401E00023FB74FB7C18462C
:1047E0001C37BD465DF8047B704780B400AF00BF46
:1047F000BD465DF8047B704780B400AF00BFFDE7A5
:1048000080B400AF00BFFDE780B400AF00BFFDE79C
:1048100080B400AF00BFFDE780B400AF00BFBD466D
:104820005DF8047B704780B400AF00BFBD465DF803
:10483000047B704780B400AF00BFBD465DF8047BC9
:104840007047000080B500AF40F224411848FFF7E0
:1048500071FF0346002B28D0164B01221A6000215D
:104860001548FEF7A3FE1448FEF7CBFE0346C3F53A
:1048700002739AB2114B1A8011490F48FEF7FCFEE1
:104880000E4B1B889BB2B3F58F7F02D9094B0122D7
:104890005A604FF402710848FEF7A4FE0121064851
:1048A000FEF784FE0248FFF7ADFE00BF80BD00BFEB
:1048B00000440040DC05002088600240C801002060
:1048C0000008002080B500AF06490748FEF73CFF0E
:1048D0000346002B03D003490348FEF78DFF00BFBA
:1048E00080BD00BF00802020A060024080B500AFE6
:1048F0000120FEF7FFFC0346002B05D00120FEF748
:1049000019FD024B01221A7000BF80BD280800204B
:1049100080B400AF00BFBD465DF8047B7047000067
:10492000DFF834D0FEF7E4FA0C480D490D4A0023B5
:1049300002E0D458C4500433C4188C42F9D30A4A54
:104940000A4C002301E013600432A242FBD3FBF7C0
:104950000BFEFCF771FC7047FFFF012000000020F8
:1049600060000020945700086000002030080020FC
:10497000FEE700000FB407B5064904AB086853F81A
:10498000042B8168019300F045F803B05DF804EB57
:1049900004B070470C000020014B1868704700BF3E
:1049A0000C0000200A44914200F1FF3300D170470F
:1049B00010B511F8014B03F8014F9142F9D110BD28
:1049C0009368013B002B10B4936008DA9469A3420A
:1049D00001DB0A2903D15DF8044B00F0C3BA136868
:1049E000581C1060197008465DF8044B7047F8B504
:1049F00006460F461446D518AC4201D1002007E008
:104A000014F8011B3A463046FFF7DAFF431CF3D196
:104A1000F8BD00002DE9F0470D469CB014461F4636
:104A2000064618B1036A0BB9FBF7D6FC6B6ED907C3
:104A300005D4AB899A0502D4A86DFBF7BAFDAB8902
:104A40001B0701D52B699BB92946304600F0C8FAEF
:104A500070B16B6EDC0704D54FF0FF301CB0BDE8C1
:104A6000F087AB899805F7D4A86DFBF7A3FDF3E7B2
:104A70000023099320238DF82930039730236A4FB0
:104A80008DF82A304FF001082346994613F8012B80
:104A90000AB1252AF9D1B9EB040A0BD053462246B4
:104AA00029463046FFF7A3FF013000F0A480099AA1
:104AB0005244099299F80030002B00F09C800023AA
:104AC0004FF0FF32CDE9052309F101090493079363
:104AD0008DF853301A934C46534814F8011B0522A5
:104AE000FBF756FB049BD0B9D90644BF20228DF8B2
:104AF00053201A0744BF2B228DF8532099F8002029
:104B00002A2A13D0079A4C4600204FF00A0C21465F
:104B100011F8013B303B092B49D968B913E0C01BA0
:104B200008FA00F018430490A146D4E7039A111D37
:104B300012680391002A01DB079204E0524243F01D
:104B400002030792049323782E2B0AD163782A2B31
:104B500032D1039B1A1D1B68039243EAE3730234AC
:104B60000593DFF8D490217803224846FBF710FB29
:104B700038B1049BA0EB090040228240134301346A
:104B8000049314F8011B29488DF828100622FBF71E
:104B9000FFFA00283ED0264818BB039B073323F0BA
:104BA000070308330393099B034409936CE70CFB49
:104BB00002320C460120AAE700230134059319466E
:104BC0004FF00A0C204610F8012B303A092A03D97D
:104BD000002BC6D00591C4E70CFB0121044601233C
:104BE000F0E703AB00932A46124B04A93046AFF31B
:104BF0000080431CD7D16B6ED90705D4AB899A05C9
:104C000002D4A86DFBF7D6FCAB895B063FF524AF59
:104C1000099823E703AB00932A46064B04A93046C4
:104C200000F07AF8E5E700BF505700085A5700082F
:104C300000000000EF490008565700082DE9F04732
:104C4000164698468A680B69DDF820909342B8BFF3
:104C50001346336091F8432007460C460AB10133EE
:104C600033602368990642BF336802333360256896
:104C700015F0060506D104F1190AE36832689B1A9B
:104C8000AB4226DC94F843302268003B18BF012376
:104C900092062BD404F1430241463846C8470130FE
:104CA0001ED02368226903F00603042B02BFE568C7
:104CB0003368ED1AA3680CBF25EAE5750025934219
:104CC000C4BF9B1AED1800261A34B5421AD1002031
:104CD00008E00123524641463846C847013003D117
:104CE0004FF0FF30BDE8F0870135C6E7E1185A1CE8
:104CF000302081F84300224494F8451082F8431094
:104D00000233C7E70123224641463846C8470130EF
:104D1000E6D00136D9E700002DE9F0430D7E85B0DD
:104D2000782D90460C9E07460C46994601F14302A9
:104D300007D8622D0AD8002D00F0D780582D00F03A
:104D4000BC8004F1420684F842503BE0A5F16303C5
:104D5000152BF6D801A151F823F000BFB54D00087E
:104D6000C94D0008434D0008434D0008434D00085D
:104D7000434D0008C94D0008434D0008434D00084D
:104D8000434D0008434D0008D14E0008F34D000884
:104D9000834E0008434D0008434D0008F34E0008C1
:104DA000434D0008F34D0008434D0008434D0008F3
:104DB0008B4E000833681A1D1B68326004F14206EE
:104DC00084F842300123A1E033682068191D316066
:104DD000060601D51D6803E04506FBD5B3F9005072
:104DE000002D03DA2D236D4284F843305B480A23FB
:104DF00011E021683368080653F8045B02D44906C1
:104E000048BFADB23360237E54486F2B5CD108237A
:104E1000002184F843106668A660002E05DB216837
:104E20002E4321F00401216050D01646B5FBF3F16A
:104E300003FB115C10F80CC006F801CDAC466345CD
:104E40000D46F3D9082B0BD12368DB0708D523695E
:104E500061689942DEBF302306F8013C06F1FF3657
:104E6000921B2261CDF80090434603AA21463846A2
:104E7000FFF7E4FE01304ED14FF0FF3005B0BDE842
:104E8000F083236843F0200323603548782584F8B5
:104E900045502368316813F0800F51F8045B03D14B
:104EA00013F0400F18BFADB23160D90744BF43F0D3
:104EB000200323601DB11023AAE72848E7E72368F1
:104EC00023F020032360F6E70A23A1E71646B9E79B
:104ED000336825686169181D30602E061B6801D58E
:104EE000196002E06806FBD519800023236116468D
:104EF000B8E733681A1D32601E68626800213046C8
:104F0000FBF746F908B1801B6060636823610023EA
:104F100084F84330A6E72369324641463846C847FD
:104F20000130A9D023689B0713D4E068039B984203
:104F3000B8BF1846A2E70123324641463846C84763
:104F4000013099D00135E36803995B1AAB42F2DC7A
:104F5000EBE7002504F11906F5E700BF61570008EB
:104F600072570008F8B50E461446054618B1036A94
:104F70000BB9FBF731FAA369A360A3891A0701D51E
:104F8000236943B92146284600F02AF818B14FF0AA
:104F9000FF373846F8BD23682269981A6369F6B26C
:104FA0008342374605DC21462846FBF77FFC002874
:104FB000EDD1A368013BA36023685A1C22601E70D8
:104FC0006269431C9A4204D0A389DB07E1D50A2E0B
:104FD000DFD121462846FBF769FC0028D9D0D6E767
:104FE00038B5284B054618680C4618B1036A0BB94A
:104FF000FBF7F2F9B4F90C301A0721D4D80607D41C
:1050000009222A6043F04003A3814FF0FF3030E0D3
:10501000590712D5616B41B104F14403994202D0A2
:105020002846FBF7C9FA002363630022B4F90C3069
:1050300062602269226023F0240343F00803A38105
:1050400022693AB99A0501D5180603D521462846A2
:1050500000F03EF8B4F90C3013F001020AD000223F
:10506000A26062695242A261226942B913F08000D3
:10507000C8D138BD990758BF6269A260F4E7002023
:10508000F7E700BF0C00002070B50C46B1F90E1018
:10509000002996B015461E460ADAA18911F0800152
:1050A00013D14FF48062002031602A6016B070BDC9
:1050B0006A4600F047F80028EFDB019901F47041DF
:1050C000A1F5005359425941EBE700214022EAE79C
:1050D0008B8973B59E0705460C4607D504F1470337
:1050E000236023610123636102B070BD01AB6A4696
:1050F000FFF7CAFF009E28463146FBF7C9FAB4F90C
:105100000C3038B99A05EFD423F0030343F00203BF
:10511000A381E3E743F08003A381019B2060C4E9FE
:105120000406002BE0D0B4F90E10284600F01CF85D
:105130000028D9D0A38923F0030343F00103A381FE
:10514000D2E7000038B5074D002304460846114653
:105150002B6000F021F8431C02D12B6803B12360BF
:1051600038BD00BFB801002038B5064D0023044605
:1051700008462B60FDF77EFE431C02D12B6803B16D
:10518000236038BDB8010020024B58221A604FF04E
:10519000FF307047B8010020024B58221A604FF0D0
:1051A000FF307047B8010020024B58221A604FF0C0
:1051B000FF307047B8010020024B58221A604FF0B0
:1051C000FF307047B8010020044A05491368002BDE
:1051D00008BF0B4618441060184670472C08002082
:1051E00030080020F8B500BFF8BC08BC9E467047E8
:0C51F000F8B500BFF8BC08BC9E46704734
:1051FC004F5632363430204F757453697A652053CC
:10520C006574206572726F7221210D0A0000000016
:10521C005350492054696D656F75740D0A00000078
:10522C00526563697665204461746120546F6F2008
:10523C004D756368210D0A00446F2070726F6365B1
:10524C007373204572726F72210D0A004D41494EE5
:10525C000D0A000049324320737461727420736923
:10526C00676E616C207472616E736D697373696FB4
:10527C006E206661696C6564210D0A004932432019
:10528C004465766963652061646472657373204E4E
:10529C006F20726573706F6E7365210D0A000000CC
:1052AC00493243205772697465207468652077729F
:1052BC006F6E6720726567697374657220616464D0
:1052CC0072657373210D0A00493243205772697459
:1052DC00652064617461206572726F72210D0A0021
:1052EC004932432073656E64207265616420726577
:1052FC006769737465722061646472657373206589
:10530C0072726F72210D0A0049324320726561641A
:10531C002064617461206572726F72210D0A000045
:10532C004932432062757320697320627573792149
:10533C000D0A0000493243203862697420526567B7
:10534C00697374657220416464726573732042756D
:10535C0066666572207772697465206572726F7209
:10536C00210D0A004932432031366269742052659E
:10537C00676973746572204164647265737320424B
:10538C007566666572207772697465206572726FD6
:10539C0072210D0A0000000066696E642069326398
:1053AC002064657669636520616464726573733A21
:1053BC00203078257828577269746520616464728E
:1053CC006573732038626974290D0A004E6F20646E
:1053DC00657669636520697320636F6E6E656374AF
:1053EC00656420746F2074686520493243206275AF
:1053FC0073210D0A00000000801A06000000FFBF98
:10540C000A000004004000005265676973746572FD
:10541C0041646472203A203078253032782052650D
:10542C007475726E2056616C7565203D2030782540
:10543C00303278200D0A000052656769737465720A
:10544C0041646472203A20307825303278205265DD
:10545C007475726E2056616C7565203A2030782513
:10546C00303278200D0A0000454550524F4D2050E7
:10547C006167652057726974652053756363657342
:10548C007321200D0A000000557365203862697481
:10549C0020526567697374657241646472206D6F24
:1054AC006465204572726F7221200D0A00000000A5
:1054BC00526567697374657241646472203A203076
:1054CC0078253034782052657475726E2056616C74
:1054DC007565203D20307825303278200D0A00008B
:1054EC00526567697374657241646472203A203046
:1054FC0078253034782052657475726E2056616C44
:10550C007565203A20307825303278200D0A00005D
:10551C0055736520313662697420526567697374FE
:10552C00657241646472206D6F6465204572726FA0
:10553C007221200D0A0000005265636976652044D3
:10554C0061746120546F6F204D756368210D0A00E2
:10555C00446F2070726F63657373204572726F7243
:10556C00210D0A0000C0040100000200010000022D
:10557C000000000007000000000004010000020011
:10558C00010000020000000007000000FF002CFFDB
:10559C002EDFFF013C321100090204D813E5144838
:1055AC002C0C33783A333BFB3E00431116103992E6
:1055BC0035DA221A37C3230034C0361A068807C0DE
:1055CC000D870E414C0048005B0042034A81219933
:1055DC002440253826825C00630046220C3C617016
:1055EC0062807C05208028306C006D806E0070021B
:1055FC00719473C112403D345A5712001180171127
:10560C00187519011A973236030F37404FBB509C4F
:10561C005A576D803D38FF00E57FF9C04124E014F6
:10562C0076FF33A0422043184C0087D5883FD70320
:10563C00D910D382C808C9807C007D007C037D48CA
:10564C007D487C087D207D107D0E9000910E911A76
:10565C009131915A91699175917E9188918F919622
:10566C0091A391AF91C491D791E8912092009306A8
:10567C0093E3930593059300930493009300930095
:10568C009300930093009300960097089719970244
:10569C00970C97249730972897269702979897807E
:1056AC0097009700C3EDA400A800C511C651BF8098
:1056BC00C710FF00BADCBB08B666B8A5B764B97CE6
:1056CC00B3AFB497B5FFB0C5B194B20FC45CC064AE
:1056DC00C14B8C00863DC3ED7F00DA00E51FE1670E
:1056EC00E000DD7F0500C0C8C1965190522C5300DC
:1056FC0054005588D304DA095080000000000000E3
:10570C0060520008010000008852000802000000EE
:10571C00AC52000803000000D45200080400000042
:10572C00EC52000805000000145300080A000000A9
:10573C002C530008000000000102030401020304C2
:10574C0006070809232D302B2000686C4C00656679
:10575C0067454647003031323334353637383941B6
:10576C0042434445460030313233343536373839CC
:08577C006162636465660000D0
:085784000CAAFF7F01000000E8
:04578C009902000876
:04579000710200089A
:1057940000000000030000007C0000201000002036
:1057A400000000007C000020E40000204C010020E8
:1057B40000000000000000000000000000000000E5
:1057C40000000000000000000000000000000000D5
:1057D40000000000000000000000000000000000C5
:1057E400000000000000000000000000007A030A2E
:040000050800492185
:00000001FF
