S31508000000A8070020A1010008891600084908000869
S3150800001085160008AF0200084F1F00080000000000
S315080000200000000000000000000000006D1A000833
S31508000030C10600080000000079170008851B0008A3
S31508000040BB010008BB010008BB010008BB01000892
S31508000050BB010008BB010008BB010008BB01000882
S31508000060BB010008BB010008BB010008BB01000872
S31508000070BB010008BB010008BB010008BB01000862
S31508000080BB010008BB010008BB010008BB01000852
S31508000090BB010008BB010008BB010008BB01000842
S315080000A0BB010008BB010008BB010008BB01000832
S315080000B0BB010008BB010008BB010008BB01000822
S315080000C0BB010008BB010008BB010008BB01000812
S315080000D0BB010008F11B0008BB010008BB010008B2
S315080000E0BB010008BB010008BB010008BB010008F2
S315080000F0BB010008BB010008BB010008BB010008E2
S31508000100BB010008BB010008BB010008BB010008D1
S31508000110BB010008BB010008BB010008BB010008C1
S31508000120BB010008BB010008BB010008BB010008B1
S31508000130BB010008BB010008BB010008BB010008A1
S31508000140BB010008BB010008BB010008BB01000891
S31508000150BB010008BB010008B5020008BB01000886
S31508000160BB010008BB010008BB010008BB01000871
S31508000170BB010008BB010008BB010008BB01000861
S31508000180BB010008BB010008DFF810D000F05EF8DC
S315080001900048004705280008AFF30080A80700209C
S315080001A00648804706480047FEE7FEE7FEE7FEE703
S315080001B0FEE7FEE7FEE7FEE7FEE7FEE7891B000827
S315080001C08901000840EA01039B0703D009E008C932
S315080001D0121F08C0042AFAD203E011F8013B00F8FE
S315080001E0013B521EF9D270472DE9F05F0546002003
S315080001F092469B4688460646814640241BE028468A
S3150800020041464746224600F042F853465A46C01A27
S31508000210914110D311461846224600F029F82D1AA6
S3150800022067EB01084F4622460120002100F020F81E
S3150800023017EB00094E41201EA4F10104DFDC4846F5
S3150800024031462A464346BDE8F09F0000064C074D56
S3150800025006E0E06840F0010394E807009847103488
S31508000260AC42F6D3FFF794FF782A0008982A0008CC
S31508000270202A04DB203A00FA02F100207047914058
S31508000280C2F1200320FA03F3194390407047202A4D
S3150800029004DB203A21FA02F00021704721FA02F322
S315080002A0D040C2F12002914008431946704700BF6A
S315080002B0FEE7000010B50A490A4800F011F968B1CE
S315080002C00749084800F02CF80021064800F042F8D3
S315080002D0012240F22661044801F0A5FD10BD000088
S315080002E000800028B8640240001001400246094B0D
S315080002F09A4201D2084801E00648103801F0005336
S315080003001BB1064B0B40C36002E0044B0B408360F5
S315080003107047000010640240006002407D0F7D0FA8
S315080003200246094B9A4201D2084801E006481038AD
S3150800033001F000531BB1064B0B40C36002E0044BAF
S315080003400B40836070470000106402400060024062
S315080003507D0F7D0F21B1026842F00102026003E0C1
S31508000360026822F00102026070470000016821F06D
S31508000370010101600021016041608160C160016185
S31508000380212141614A49884204D13D21484A103A0F
S3150800039091608CE046491831884205D14FF4746162
S315080003A0434A103A916082E041493031884205D18A
S315080003B04FF474113E4A103A916078E03C4948314E
S315080003C0884205D14FF07461394A103A91606EE05F
S315080003D037496031884204D13649354A103AD160E6
S315080003E065E033497831884204D13349304A103AB6
S315080003F0D1605CE02E499031884204D12F492C4ABD
S31508000400103AD16053E02A49A831884205D14FF005
S315080004103D51274A103AD16049E02949884204D11A
S315080004203D21274A083A116041E02549183188429A
S3150800043005D14FF47461224A083A116037E0204921
S315080004403031884205D14FF474111D4A083A1160BB
S315080004502DE01B494831884205D14FF07461184A8E
S31508000460083A116023E016496031884204D11149DF
S31508000470134A121F11601AE011497831884204D1D3
S315080004800D490F4A121F116011E00D49903188423B
S3150800049004D10A490A4A121F116008E00849A8311E
S315080004A0884204D14FF03D51054A121F116070472A
S315080004B0106002403D000020400F002000003D2053
S315080004C010640240014600200A6802F001020AB1DF
S315080004D0012000E0002070470146486880B2704756
S315080004E070B50246002000240025124EB24201D201
S315080004F0114B01E00F4B103B104E0E4036B11E2635
S3150800050006EAD124166806EA040502E0566906F0EA
S31508000510800501F000560EB15C6800E01C68084EC4
S31508000520344004EA010616B10DB1012000E00020AE
S3150800053070BD000010640240006002403C0F3C0F92
S315080005407D0F7D0F10B501F080034BB122B14369D1
S3150800055043F08003436103E0436923F0800343616A
S3150800056080290BD02AB1036801F01E0423430360D7
S3150800057004E0036801F01E04A343036010BD0000F5
S3150800058010B500220268134B1A40CC680B68234347
S315080005904C6923438C692343CC6923430C6A234360
S315080005A04C6A23438C6A23434C6B23438C6B23434B
S315080005B01A430260426922F00702D1E90B34234349
S315080005C01A4342610B6943604B6883608B68C3605A
S315080005D010BD00003F801CF04160704700B58FB029
S315080005E00121880501F0CAF83148FFF7BFFE00BFB0
S315080005F02F48FFF767FF0028FAD14FF000600090F8
S315080006002C4801902C480290002003904FF4C870A3
S315080006100490002005904FF4806006900020079013
S31508000620089009904FF440300A9000200B90032060
S315080006300C9000200D900E9069461D48FFF7A0FF0C
S3150800064001211B48FFF786FE19483030FFF78EFE5A
S315080006504FF000600090174801901848029040201B
S3150800066003904FF4C8700490002005904FF4806002
S31508000670069000200790089009904FF480300A9061
S3150800068000200B900C900D900E906946084830306B
S31508000690FFF776FF002106483030FFF75BFE0122A0
S315080006A0102103483030FFF74DFF0FB000BD0000A2
S315080006B0886402400410014018000020A8010020A8
S315080006C07047000070B5002501240CE06106080E8D
S315080006D002F05CF828B1610006A001F041FC681C34
S315080006E0C5B2601CC4B2802CF0DB15B90EA001F0AF
S315080006F037FC70BD66696E6420693263206465766E
S3150800070069636520616464726573733A203078257D
S3150800071078285772697465206164647265737320FA
S3150800072038626974290D0A004E6F2064657669631C
S315080007306520697320636F6E6E65637465642074E3
S315080007406F207468652049324320627573210D0A4B
S3150800075000000000F0B50A4600210023002400BF6F
S315080007603DE0012505FA01F3156805EA03049C42F4
S3150800077034D105684F000326BE40B5430560157998
S315080007804E00B5400668354305601579012D02D03F
S315080007901579022D16D185684F000326BE40B5434C
S315080007A0856055794E00B54086683543856045684D
S315080007B001268E40B5434560456896798E40B6B2A7
S315080007C035434560C5684F000326BE40B543C5603E
S315080007D0D5794E00B540C6683543C560491C102911
S315080007E0BFD3F0BDF0B5002300244D07ED0E02FA85
S315080007F005F3CE1000F1200555F826504E07F70EE2
S315080008000F26BE40B543CF1000F1200646F8275004
S31508000810CE1000F1200555F8265045EA0304CE10FF
S3150800082000F1200545F82640F0BD4FF6FF7101603E
S315080008300021017141718171C17170470AB18161ED
S3150800084001E00B048361704700BFFEE721B102880F
S3150800085042F48062028004E002884FF6FF331A40B1
S31508000860028070472DE9F0410746884616461D4620
S315080008704FF4206408E0201EA4F1010404D10A20E4
S3150800088000F0AEFDBDE8F0814FF400314F4800F0AE
S3150800089021FC0028EFD101214C4800F003FC4FF45D
S315080008A0807406E0201EA4F1010402D100F098FD30
S315080008B0E8E74749454800F03DFA0028F2D000220B
S315080008C03946424800F081FD4FF4807407E0201E47
S315080008D0A4F1010403D1012000F082FDD2E73D49CD
S315080008E03A4800F027FA0028F1D00121374800F0ED
S315080008F046FA4146354800F070FD4FF4807407E02B
S31508000900201EA4F1010403D1042000F069FDB9E713
S315080009103049891C2D4800F00DFA0028F0D0012135
S315080009202A4800F0BFFB4FF4807406E0201EA4F1AD
S31508000930010402D100F054FDA4E72549234800F03C
S31508000940F9F90028F2D001223946204800F03DFD89
S315080009504FF4807407E0201EA4F1010403D101209E
S3150800096000F03EFD8EE71A49491C184800F0E2F9E6
S315080009700028F0D022E0012D07D100211348FFF707
S3150800098065FF0121114800F099FB4FF4206407E048
S31508000990201EA4F1010403D1052000F021FD71E712
S315080009A00B493F31094800F0C5F90028F0D007483F
S315080009B000F007FD3070761C681E85B2002DDAD16E
S315080009C001210248FFF742FF01205BE7005400407F
S315080009D001000300820007002DE9F04180460E461B
S315080009E017461D464FF4206408E0201EA4F10104B2
S315080009F004D10A2000F0F4FCBDE8F0814FF4003180
S31508000A005A4800F067FB0028EFD10121574800F04B
S31508000A1049FB4FF4807406E0201EA4F1010402D1BC
S31508000A2000F0DEFCE8E75249504800F083F9002858
S31508000A30F2D0002241464D4800F0C7FC4FF48074BE
S31508000A4007E0201EA4F1010403D1012000F0C8FC30
S31508000A50D2E74849454800F06DF90028F1D0012150
S31508000A60424800F08CF93112404800F0B6FC4FF4C9
S31508000A70807407E0201EA4F1010403D1042000F0CD
S31508000A80AFFCB9E73B49891C384800F053F9002800
S31508000A90F0D0F1B2354800F0A0FC4FF4807407E0BE
S31508000AA0201EA4F1010403D1042000F099FCA3E759
S31508000AB03049891C2D4800F03DF90028F0D0012165
S31508000AC02A4800F0EFFA4FF4807406E0201EA4F1DD
S31508000AD0010402D100F084FC8EE72549234800F082
S31508000AE029F90028F2D001224146204800F06DFC81
S31508000AF04FF4807407E0201EA4F1010403D10120FD
S31508000B0000F06EFC78E71A49491C184800F012F9FB
S31508000B100028F0D022E0012D07D100211348FFF765
S31508000B2095FE0121114800F0C9FA4FF4206407E048
S31508000B30201EA4F1010403D1052000F051FC5BE757
S31508000B400B493F31094800F0F5F80028F0D007486E
S31508000B5000F037FC38707F1C681E85B2002DDAD18C
S31508000B6001210248FFF772FE012045E700540040C4
S31508000B7001000300820007002DE9F04781460E4672
S31508000B8014461F464FF0000813E014F8012B3146AF
S31508000B90731CDEB2484600F065F8C5B22DB907A049
S31508000BA001F0DEF90020BDE8F08708F101001FFA20
S31508000BB080F8B845E9DB2846F5E7000049324320C6
S31508000BC03862697420526567697374657220416476
S31508000BD064726573732042756666657220777269FA
S31508000BE07465206572726F72210D0A002DE9F0474F
S31508000BF081460E4614461F464FF0000813E014F8C7
S31508000C00012B3146731C9EB2484600F00BFCC5B258
S31508000C102DB907A001F0A4F90020BDE8F08708F176
S31508000C2001001FFA80F8B845E9DB2846F5E7000019
S31508000C304932432031366269742052656769737494
S31508000C4065722041646472657373204275666665D1
S31508000C5072207772697465206572726F72210D0A47
S31508000C60000000002DE9F04105460F461646012111
S31508000C702D4800F017FA4FF4807407E0201EA4F1FF
S31508000C80010403D100F0ACFBBDE8F08127492648F2
S31508000C9000F050F80028F1D000222946224800F03A
S31508000CA094FB4FF4807407E0201EA4F1010403D1DD
S31508000CB0012000F095FBE7E71D491B4800F03AF8CC
S31508000CC00028F1D03946184800F087FB4FF48074A5
S31508000CD007E0201EA4F1010403D1022000F080FBE6
S31508000CE0D2E71349891C104800F024F80028F0D0F0
S31508000CF031460D4800F071FB4FF4807407E0201E62
S31508000D00A4F1010403D1032000F06AFBBCE70849FB
S31508000D10891C054800F00EF80028F0D00121024889
S31508000D2000F0CCF90120AFE70054004001000300B1
S31508000D308200070070B5024600250023002400261D
S31508000D40938A03F0020010B923F0100008B1148B3F
S31508000D5001E0002070BD240443EA040020F07F452A
S31508000D6005EA0100884201D1012600E00026304646
S31508000D70F0E7002221F07F42D3438382704721B1F6
S31508000D80028842F00102028004E002884FF6FE73F0
S31508000D901A400280704700002DE9F04107460D46CB
S31508000DA0164698460121404800F07CF94FF48074B5
S31508000DB008E0201EA4F1010404D100F011FBC0B222
S31508000DC0BDE8F08139493848FFF7B4FF0028F0D06C
S31508000DD000223946344800F0F8FA4FF4807408E0E7
S31508000DE0201EA4F1010404D1012000F0F9FAC0B2D2
S31508000DF0E6E72F492C48FFF79DFF0028F0D0291277
S31508000E00294800F0EAFA4FF4807408E0201EA4F19D
S31508000E10010404D1022000F0E3FAC0B2D0E7244965
S31508000E20891C2148FFF786FF0028EFD0E9B21E4843
S31508000E3000F0D3FA4FF4807408E0201EA4F10104F0
S31508000E4004D1022000F0CCFAC0B2B9E71849891CCF
S31508000E501548FFF76FFF0028EFD017E031781248E2
S31508000E6000F0BBFA761C4FF4206408E0201EA4F1BB
S31508000E70010404D1032000F0B3FAC0B2A0E70C497C
S31508000E80891C0948FFF756FF0028EFD0B8F1000083
S31508000E90A8F1010101F0FF08E0D10121024800F0A4
S31508000EA00DF901208CE70000005400400100030002
S31508000EB0820007002DE9F0410646884615461F467A
S31508000EC04FF420640AE0201EA4F101018CB205D17A
S31508000ED00A2000F085FAC0B2BDE8F0814FF400316F
S31508000EE0394800F0F7F80028EDD10121364800F01E
S31508000EF0D9F84FF4206408E0201EA4F101018CB251
S31508000F0003D100F06DFAC0B2E6E730492E48FFF784
S31508000F1011FF0028F0D0002231462B4800F055FA80
S31508000F204FF4206409E0201EA4F101018CB204D11B
S31508000F30012000F055FAC0B2CEE725492248FFF74E
S31508000F40F9FE0028EFD041461F4800F046FA4FF454
S31508000F50206409E0201EA4F101018CB204D102200C
S31508000F6000F03EFAC0B2B7E71949891C1648FFF7E0
S31508000F70E1FE0028EED018E02978134800F02DFA93
S31508000F806D1C4FF4206409E0201EA4F101018CB207
S31508000F9004D1032000F024FAC0B29DE70C49891C4D
S31508000FA00948FFF7C7FE0028EED0381EA7F1010151
S31508000FB0CFB2E1D10121044800F080F8304600F0B4
S31508000FC009F8012088E700000054004001000300EA
S31508000FD08200070038B504460020009000BF0121B2
S31508000FE00E4800F05FF814210C4800F0DFF9009075
S31508000FF000222146094800F0E8F91421074800F0C4
S31508001000D5F900F002000028E9D005490348FFF7A2
S31508001010B0FE0121014800F051F838BD00540040E7
S31508001020000400101CB50121480500F0B7FB01219A
S31508001030022000F0A3FB042208211948FFF7D2FB7F
S31508001040042209211648FFF7CDFB6846FFF7EDFB9A
S315080010504FF48070009002208DF804008DF805008A
S3150800106001208DF8060000208DF8070069460C4817
S31508001070FFF770FB6846FFF7D8FB4FF40070009047
S3150800108002208DF804008DF8050001208DF8060071
S3150800109000208DF8070069460148FFF75BFB1CBD79
S315080010A00004024021B1028842F48072028004E002
S315080010B002884FF6FF631A400280704721B1028802
S315080010C042F40072028004E002884FF6FF531A4089
S315080010D0028070470CB50246002000230193009356
S315080010E000920B0F019321F07F41019B1BB1009BDE
S315080010F01433009303E0090C009B18330093009BFC
S315080011001B680B400BB1012000E000200CBD00005D
S315080011102DE9FF4704460D460026B1460427DFF8A9
S31508001120CC80A6884FF6C0700640684600F076FB6D
S31508001130DDF808802E48B8FBF0F01FFA80F946EA79
S315080011400906A68020884FF6FE71084020800026F2
S315080011502849286888420CD828684000B8FBF0F06F
S3150800116087B2042F00DA04273E4309F101002084E0
S3150800117027E0E8884BF6FF71884206D1286800EB1D
S315080011804000B8FBF0F087B209E0286800EBC00120
S3150800119001EB0010B8FBF0F087B247F48047C7F3BD
S315080011A00B0008B947F0010747F4004006434FF41F
S315080011B0967009FB00F04FF47A7190FBF1F0401C31
S315080011C02084A683208840F00100208026884FF6D8
S315080011D0F5300640A8886989084306432680A88909
S315080011E0298908432081BDE8FF87000000127A009C
S315080011F040420F00A08601001FB5064B0FCB8DE8B5
S315080012000F0069460448FFF783FF01210248FFF7EC
S31508001210B6FD1FBD74290008005400402DE9F041B1
S3150800122006460D4617464FF4206408E0201EA4F132
S31508001230010404D10A2000F0D3F8BDE8F0814FF488
S3150800124000315748FFF746FF0028EFD101215448DF
S31508001250FFF728FF4FF4807406E0201EA4F101046E
S3150800126002D100F0BDF8E8E74E494D48FFF762FDA8
S315080012700028F2D000223146494800F0A6F84FF47B
S31508001280807407E0201EA4F1010403D1012000F0B8
S31508001290A7F8D2E744494248FFF74CFD0028F1D0A9
S315080012A001213F48FFF76BFD29123D4800F095F8EC
S315080012B04FF4807407E0201EA4F1010403D1042032
S315080012C000F08EF8B9E73849891C3548FFF732FD32
S315080012D00028F0D0E9B2324800F07FF84FF4807465
S315080012E007E0201EA4F1010403D1042000F078F8D9
S315080012F0A3E72D49891C2A48FFF71CFD0028F0D0D2
S3150800130001212748FFF7CEFE4FF4807406E0201E21
S31508001310A4F1010402D100F063F88EE721492048C0
S31508001320FFF708FD0028F2D0012231461C4800F0DC
S315080013304CF84FF4807407E0201EA4F1010403D191
S31508001340012000F04DF878E71649491C1448FFF7C4
S31508001350F1FC0028F0D000211148FFF777FA0121A7
S315080013600F48FFF7ABFE4FF4206407E0201EA4F1F8
S31508001370010403D1052000F033F85EE709493F313F
S315080013800748FFF7D7FC0028F0D0054800F019F801
S31508001390387001210248FFF759FA01204DE700008D
S315080013A000540040010003008200070008B5024609
S315080013B00020009000920098084400900098008849
S315080013C008BD0146088AC0B2704712B141F0010152
S315080013D001E001F0FE0101827047018270470000BA
S315080013E070B5054600240DE00B4810F83400A842F5
S315080013F007D1094800EBC400416808A000F0B0FD19
S3150800140002E0641C072CEFD300BF01210448FFF754
S3150800141055FE002070BD00003C2900082573000019
S31508001420005400402DE9F04106460D4617460121B5
S315080014303848FFF737FE4FF4807407E0201EA4F102
S31508001440010403D1FFF7CCFFBDE8F08132493148EA
S31508001450FFF770FC0028F1D0002231462D48FFF72F
S31508001460B4FF4FF4807407E0201EA4F1010403D1F1
S315080014700120FFF7B5FFE7E728492648FFF75AFC9A
S315080014800028F1D029122348FFF7A7FF4FF48074EC
S3150800149007E0201EA4F1010403D10220FFF7A0FFF4
S315080014A0D2E71E49891C1B48FFF744FC0028F0D0E8
S315080014B0E9B21848FFF791FF4FF4807407E0201E41
S315080014C0A4F1010403D10220FFF78AFFBCE7134900
S315080014D0891C1048FFF72EFC0028F0D039460D4825
S315080014E0FFF77BFF4FF4807407E0201EA4F1010488
S315080014F003D10320FFF774FFA6E70849891C0548AE
S31508001500FFF718FC0028F0D001210248FFF7D6FDA6
S31508001510012099E7005400400100030082000700FB
S315080015202DE9F04105460F4616464FF4206408E0BB
S31508001530201EA4F1010404D10A20FFF751FFBDE8DB
S31508001540F0814FF400314C48FFF7C4FD0028EFD175
S3150800155001214948FFF7A6FD4FF4807406E0201ED6
S31508001560A4F1010402D1FFF73BFFE8E743494248EB
S31508001570FFF7E0FB0028F2D0002229463E48FFF795
S3150800158024FF4FF4807407E0201EA4F1010403D160
S315080015900120FFF725FFD2E739493748FFF7CAFB8D
S315080015A00028F1D001213448FFF7E9FB39463248D3
S315080015B0FFF713FF4FF4807407E0201EA4F101041F
S315080015C003D10420FFF70CFFB9E72D49891C2A48E7
S315080015D0FFF7B0FB0028F0D001212748FFF762FD8E
S315080015E04FF4807406E0201EA4F1010402D1FFF72F
S315080015F0F7FEA4E721492048FFF79CFB0028F2D014
S31508001600012229461C48FFF7E0FE4FF4807407E0E4
S31508001610201EA4F1010403D10120FFF7E1FE8EE7A5
S315080016201649491C1448FFF785FB0028F0D000210D
S315080016301148FFF70BF901210F48FFF73FFD4FF45B
S31508001640206407E0201EA4F1010403D10520FFF75A
S31508001650C7FE74E709493F310748FFF76BFB0028C7
S31508001660F0D00548FFF7ADFE307001210248FFF7BC
S31508001670EDF8012063E70000005400400100030074
S315080016808200070000BFFEE7704708B54FF4A06068
S3150800169000F068F825208DF8000002208DF801007A
S315080016A001208DF802008DF80300684600F01EF848
S315080016B044208DF8000002208DF801008DF8020004
S315080016C001208DF80300684600F010F846208DF8D2
S315080016D0000002208DF8010003208DF80200012089
S315080016E08DF80300684600F001F808BD70B50021C2
S315080016F000230F22C4781CB3174C246804F4E06452
S31508001700C4F5E064C4F30721C1F10404E3B20A4155
S3150800171044789C40E1B28478144021430C07210E9A
S315080017200E4C05786155047804F01F050124AC4079
S3150800173005786D11AD0005F1E025C5F8004109E011
S31508001740047804F01F050124AC40054D067876118F
S3150800175045F8264070BD00000CED00E000E400E00E
S3150800176080E100E002490143024A11607047000027
S315080017700000FA050CED00E07047000029B1064AA2
S3150800178012680243044B1A6004E0034A1268824353
S31508001790014B1A60704700003038024029B1064AEA
S315080017A012680243044B1A6004E0034A1268824333
S315080017B0014B1A60704700004038024029B1064ABA
S315080017C012680243044B1A6004E0034A1268824313
S315080017D0014B1A60704700002038024029B1064ABA
S315080017E012680243044B1A6004E0034A12688243F3
S315080017F0014B1A60704700004438024029B1064A76
S3150800180012680243044B1A6004E0034A12688243D2
S31508001810014B1A607047000024380240F0B50021D9
S3150800182000220024022500260223324F3F6807F0D3
S315080018300C0121B1042905D0082937D105E02E4F1E
S31508001840076036E02D4F076033E02A4F3F1F3F6899
S31508001850C7F38056274F3F1F3F6807F03F036EB117
S31508001860264FB7FBF3F7DFF88CC0ACF1040CDCF8B5
S3150800187000C0CCF3881C07FB0CF40CE01E4FB7FB2A
S31508001880F3F7DFF870C0ACF1040CDCF800C0CCF359
S31508001890881C07FB0CF4174F3F1F3F68C7F3014727
S315080018A07F1C7D00B4FBF5F7076002E0124F076066
S315080018B000BF00BF0F4F3F6807F0F0010909104F3E
S315080018C07A5C0768D74047600A4F3F6807F4E051DB
S315080018D0890A0B4F7A5C4768D7408760054F3F688F
S315080018E007F46041490B064F7A5C4768D740C760E2
S315080018F0F0BD0000083802400024F40000127A0007
S315080019000400002010B500F00FF800F099F810BD9B
S3150800191021B1028842F04002028004E002884FF6B4
S31508001920BF731A40028070471CB501210846FFF7AD
S3150800193025FF01210803FFF751FF0522114630480C
S31508001940FEF750FF052206212D48FEF74BFF05221C
S3150800195007212B48FEF746FF6846FEF766FF20205C
S31508001960009002208DF805008DF8040000208DF8FF
S3150800197006008DF8070069462148FEF7EBFE684623
S31508001980FEF753FF4020009002208DF805008DF8E1
S31508001990040000208DF806008DF8070069461848EF
S315080019A0FEF7D8FE6846FEF740FF8020009002202A
S315080019B08DF805008DF8040000208DF806008DF8D6
S315080019C0070069460E48FEF7C5FE6846FEF72DFF76
S315080019D01020009002208DF8050001208DF80400E3
S315080019E000208DF806008DF8070069460448FEF7C2
S315080019F0B1FE012210210248FEF720FF1CBD00009F
S31508001A000000024010B50022028802F441520B88F9
S31508001A104C8823438C882343CC8823430C8923434F
S31508001A204C8923438C892343CC8923431A43028058
S31508001A30838B4FF2FF74234083830B8A038210BD86
S31508001A4000B585B0142207496846FEF7BBFB694610
S31508001A500548FFF7D7FF01210348FFF759FF05B0EF
S31508001A6000BD0000842900080030014070470000CE
S31508001A700CB50020019000903448006840F480308E
S31508001A803249086000BF3148006800F40030009011
S31508001A900198401C0190009818B90198B0F5A04F1C
S31508001AA0F1D12A48006800F4003010B101200090F6
S31508001AB001E0002000900098012846D123484030D4
S31508001AC0006840F08050214940310860204800688D
S31508001AD040F440401E4908601C48083000681B490D
S31508001AE0083108600846006840F400400860084667
S31508001AF0006840F4A05008601648091F0860081FCF
S31508001B00006840F08070091F086000BF0F48006831
S31508001B1000F000700028F9D040F205700E49086000
S31508001B200A480830006820F00300084908310860B0
S31508001B300846006840F00200086000BF0348083005
S31508001B40006800F00C000828F8D10CBD00380240E7
S31508001B500070004008544007003C0240042808D1A1
S31508001B604FF0E021096941F004014FF0E0221161CC
S31508001B7007E04FF0E021096921F004014FF0E02267
S31508001B80116170477047000010B51548006840F4A9
S31508001B907000134908601348006840F001001149B5
S31508001BA0086000200F49083108600E4800680E4991
S31508001BB008400C4908600D48091D0860081F0068A0
S31508001BC020F48020091F0860002006490C310860AF
S31508001BD0FFF74EFF4FF0006001498039086010BDDD
S31508001BE088ED00E000380240FFFFF6FE10300024C2
S31508001BF010B540F22441234800F0EBF890B30120D9
S31508001C002149086000212148FEF7A4FB1F48FEF77A
S31508001C1063FCC0F5C8701E4908801E491B48FEF7BC
S31508001C2065FB1B480088622803DD012016494860C9
S31508001C300CE017480288184913480C30FEF7C2FA18
S31508001C40002111480C30124A128881544FF4C87189
S31508001C500E48FEF7C1FC01210C48FEF77BFB09483C
S31508001C6000F070F940F22771064800F0A5F840B96F
S31508001C70002240F22661034800F0D5F80020044906
S31508001C80088010BD00100140380300208864024017
S31508001C9000000020000800201800002021B18289D9
S31508001CA042F40052828104E082894DF6FF731A409D
S31508001CB0828170471AB1838A0B43838202E0838A42
S31508001CC08B4383827047000010B50446324884422D
S31508001CD008D101211020FFF791FD00211020FFF700
S31508001CE08DFD57E02D48844209D101214804FFF7AC
S31508001CF065FD00214FF40030FFF760FD4AE02848F3
S31508001D00844209D101218804FFF758FD00214FF4C8
S31508001D108020FFF753FD3DE02248844209D1012186
S31508001D20C804FFF74BFD00214FF40020FFF746FDDE
S31508001D3030E01D48844209D101210805FFF73EFD20
S31508001D4000214FF48010FFF739FD23E0174884423D
S31508001D5008D101212020FFF751FD00212020FFF79F
S31508001D604DFD17E01248844209D101218807FFF783
S31508001D7025FD00214FF08040FFF720FD0AE00D48C1
S31508001D80844207D101214005FFF718FD00216005AF
S31508001D90FFF714FD10BD000000100140004400408C
S31508001DA000480040004C004000500040001401402C
S31508001DB000780040007C004002460020B1F5007F14
S31508001DC000D100BF13880B400BB1012000E00020B2
S31508001DD0704770B50246002400230025002040F60F
S31508001DE06A16B14200D100BFC1F3421501F01F03C4
S31508001DF0012606FA03F3012D02D19689334006E03F
S31508001E00022D02D1168A334001E0968A33400C121D
S31508001E10012606FA04F41688344013B10CB10120E1
S31508001E2000E0002070BDF0B503460024002600251A
S31508001E30002040F66A17B94200D100BF1846C1F320
S31508001E40421401F01F06012707FA06F5012C01D1F5
S31508001E500C3004E0022C01D1103000E014301AB125
S31508001E6007682F43076002E00768AF430760F0BDC5
S31508001E702DE9FF4705460E460024A14600BFA046A9
S31508001E80B08900B100BF2C8A24F44054F08804437A
S31508001E902C82AC8941F20C608443B08831890843AE
S31508001EA0718908430443AC81AC8A24F44074B08930
S31508001EB00443AC826846FFF7B1FC2048854202D04D
S31508001EC01F48854202D1DDF80C9001E0DDF8089044
S31508001ED0A88900F4004040B109EBC90000EB0910DD
S31508001EE031684900B0FBF1F707E009EBC90000EBE0
S31508001EF0091031688900B0FBF1F76420B7FBF0F0F0
S31508001F0004012009642101FB1078A88900F4004027
S31508001F1040B1322000EBC800B0FBF1F000F007003A
S31508001F20044308E0322000EB08106421B0FBF1F00E
S31508001F3000F00F0004432C81BDE8FF870010014024
S31508001F400014014001468888C0F30800704700BFA6
S31508001F50FEE710B5FFF766F8FFF74EF910BD00006B
S31508001F600FB4054B10B503A9044A029800F018F8F7
S31508001F7010BC5DF814FB0000592700081400002067
S31508001F8002E008C8121F08C1002AFAD17047704734
S31508001F90002001E001C1121F002AFBD17047000092
S31508001FA02DE9FF4F8DB00F460546002606E0252889
S31508001FB00BD0DDE90F1290476D1C761C2878002897
S31508001FC0F5D111B03046BDE8F08F0024A246A146EF
S31508001FD00122E94900E0044315F8013F203B02FAD3
S31508001FE003F00842F7D128782A2810D06FF02F027C
S31508001FF02878A0F13001092914D80AEB8A0102EBE6
S31508002000410144F0020400EB010A6D1CF0E701CF20
S315080020105FEA000A03D544F40054CAF1000A44F002
S3150800202002046D1C28782E2817D115F8010F44F0E4
S3150800203004042A280ED06FF02F022878A0F1300168
S3150800204009290AD809EB890102EB410100EB0109CC
S315080020506D1CF2E757F8049B6D1C28786C280FD086
S3150800206006DC4C2817D068280DD06A2814D104E05D
S31508002070742810D07A280FD10DE044F400140AE031
S3150800208044F4801401E044F440146978814202D192
S3150800209004F580146D1C6D1C28786E281ED00CDC87
S315080020A0632830D004DC00288BD0582811D19FE053
S315080020B0642867D069280CD164E073282DD004DC25
S315080020C06F2872D0702804D194E075286ED07828CD
S315080020D06DD0DDE90F129047761C4BE1C4F3025030
S315080020E0022806D0032809D0042801CF09D00660A3
S315080020F040E101CFF117C0E900613BE101CF06805D
S3150800210038E1067036E117F8040B8DF80000002058
S315080021108DF80100EB46012003E057F804BB4FF0A9
S31508002120FF3061074FF0000102D40DE008F101010C
S31508002130884649450FDA8045F8DB1BF80810002960
S31508002140F4D108E008F1010188468142FADB1BF860
S3150800215008100029F6D1DDE90F23AAEB080081460D
S31508002160214600F031F9304400EB080604E0DDE9C9
S315080021700F121BF8010B9047B8F10108F7D2214658
S315080021804846F2E00A21C4F302524FF0000B0891C8
S31508002190022A04D001CFC117032A09D00AE0FF1D7D
S315080021A027F00707F7E8020108E02CE01EE01FE029
S315080021B000B2C117042A01D140B2C117021E71F13B
S315080021C0000206DA0023D0EB030063EB01012D229F
S315080021D002E0220504D52B228DF82420012203E0F3
S315080021E0E20701D02022F7E7904653E00A210BE0E8
S315080021F0102109E010214FF0000B44F004044FF0C1
S315080022000809089103E008214FF0000B0891C4F370
S315080022100252022A04D001CF0021032A06D006E082
S31508002220FF1D27F00707F7E8020103E080B2042A3A
S3150800223000D1C0B24FF0000822072BD52A78702AA1
S3150800224007D0DDF820C08CF0100C5CEA0B0C05D02A
S315080022500EE040228DF82420012208E050EA01030E
S3150800226006D030238DF824308DF82520022290469A
S31508002270089B83F0080353EA0B030BD150EA0102CB
S3150800228001D1620706D530228DF824204FF00108C7
S31508002290A9F101092A78582A04D038A20B9208AA6B
S315080022A00A920BE03AA2F9E75B46089AFDF79CFF0B
S315080022B00B9B9B5C0A9A521E0A92137050EA010203
S315080022C0F2D10A98ADEB000000F1200B600702D5A9
S315080022D024F4803401E04FF00109D94502DDA9EB69
S315080022E00B0000E0002000EB0B0141440890AAEB2C
S315080022F0010AE00306D4DDE90F232146504600F023
S3150800230063F806444FF0000908E009A911F8090026
S31508002310DDE90F12904709F10109761CC145F4DB86
S31508002320E0030CD5DDE90F232146504600F04CF8B2
S31508002330064404E0DDE90F1230209047761C089920
S31508002340481E08900029F5DC08E00A980A990078E2
S31508002350491C0A91DDE90F129047761CBBF1000172
S31508002360ABF1010BF1DC21465046DDE90F2300F005
S3150800237019F806446D1C21E609280100303132336C
S3150800238034353637383961626364656600000000A3
S31508002390303132333435363738394142434445468D
S315080023A0000000002DE9F041044600251E461746A8
S315080023B0880404D405E039462020B0476D1C641E05
S315080023C0F9D52846BDE8F0812DE9F04104460025F7
S315080023D01E469046C80301D5302700E0202788040A
S315080023E004D505E041463846B0476D1C641EF9D54C
S315080023F02846BDE8F081000010B54FF00060084996
S3150800240008600420FFF7AAFB4FF6FF704FF0E021A3
S3150800241048610846006940F00100086110BD0000E7
S3150800242008ED00E02DE9FC5F0446002794F80280D9
S31508002430E078019094F8049094F805B0A07900909B
S31508002440009840EA0B2AE51DB8F1070F42D2DFE8EB
S3150800245008F041040A111E3235002A7851460198BF
S31508002460FEF7E0FF3AE04B462A4651460198FEF74A
S31508002470BDFB33E02A4651460198FEF7CFFE0746D4
S3150800248027B12A78514617A0FFF76AFD26E04B4682
S315080024902A4651460198FEF79FFA074657B1002685
S315080024A006E0AA5D0AEB06011AA0FFF759FD761C9D
S315080024B04E45F6D312E0FEF705F90FE04B462A46DD
S315080024C051460198FEF768FC074617B11DA0FFF7AD
S315080024D047FD03E023A0FFF743FD00BF00BFBDE8AB
S315080024E0FC9F000052656769737465724164647283
S315080024F0203A203078253034782052657475726E0B
S315080025002056616C7565203D20307825303278205C
S315080025100D0A0000526567697374657241646472D6
S31508002520203A203078253034782052657475726EDA
S315080025302056616C7565203A20307825303278202F
S315080025400D0A0000454550524F4D205061676520E1
S315080025505772697465205375636365737321200D1B
S315080025600A00000055736520313662697420526589
S3150800257067697374657241646472206D6F6465205F
S315080025804572726F7221200D0A0000002DE9F05F76
S3150800259004464FF0000894F8029094F803B02579A1
S315080025A094F805A0A61DFF2D01D1681C85B2B9F1C6
S315080025B0070F45D2DFE809F044040A11203639002E
S315080025C0327851465846FEF74DFB3DE02B463246DB
S315080025D051465846FEF7D0FA36E032465146584636
S315080025E0FEF79EFF8046B8F1000F04D032785146B8
S315080025F017A0FFF7B5FC27E02B463246514658464A
S31508002600FEF730F98046B8F1000F0AD0002706E039
S31508002610F25D0AEB07011AA0FFF7A2FC7F1CAF4286
S31508002620F6D311E0FEF74EF80EE0EBB2324651460D
S315080026305846FEF73FFC10B11DA0FFF791FC03E0DA
S3150800264023A0FFF78DFC00BF00BFBDE8F09F000088
S31508002650526567697374657241646472203A203002
S3150800266078253032782052657475726E2056616C02
S315080026707565203D20307825303278200D0A000017
S31508002680526567697374657241646472203A2030D2
S3150800269078253032782052657475726E2056616CD2
S315080026A07565203A20307825303278200D0A0000EA
S315080026B0454550524F4D20506167652057726974E1
S315080026C065205375636365737321200D0A00000046
S315080026D05573652038626974205265676973746535
S315080026E07241646472206D6F6465204572726F7200
S315080026F021200D0A0000000070B50446257B667B84
S31508002700552D03D000202060A06070BD012E06D094
S31508002710022E09D0032E0CD0042E14D10EE004F19B
S315080027200C0000F018F80FE004F10C00FFF72EFF7C
S315080027300AE004F10C00FFF775FE05E004F10C0051
S3150800274000F008F800E000BF00BF00202060A0608D
S315080027500120DAE77047704770B504460D46094907
S315080027600C7000BF0848FDF7ADFE0028FAD101211C
S315080027700548FDF731FF01210348FDF7EBFD20462B
S3150800278070BD0000A8010020B864024070B5044678
S3150800279001211948FEF786FC4FF4807507E0281ECC
S315080027A0A5F1010503D1FEF71BFEC0B270BD1349A2
S315080027B01148FEF7BFFA0028F1D0002221460E483C
S315080027C0FEF703FE4FF4807509E0281EA5F1010502
S315080027D005D101210848FEF771FC0020E6E7084903
S315080027E00548FEF7A7FA0028EFD001210248FEF7B0
S315080027F065FC0120DAE700000054004001000300F0
S31508002800820007000024FFF7F7FDFEF73EFF4FF4AE
S31508002810E13000F03BF8FDF7E1FEFFF79AFBFFF722
S3150800282071F819E00D480068012814D10B48406872
S31508002830012807D10AA0FFF793FB00200749486043
S31508002840086009E00548FFF757FF04461CB90AA0C7
S31508002850FFF786FB002400BFE4E7000038030020EA
S31508002860526563697665204461746120546F6F20F0
S315080028704D756368210D0A00446F2070726F636599
S315080028807373204572726F72210D0A0010B586B0F7
S3150800289004462848FFF718FA01210846FEF76EFF96
S315080028A001211020FEF79AFF072209212248FDF789
S315080028B099FF07220A212048FDF794FF4FF4C060CC
S315080028C0049002208DF8140003208DF815000020CE
S315080028D08DF8160001208DF8170004A91648FDF793
S315080028E039FF00940020ADF80400ADF80600ADF8F5
S315080028F008000C20ADF80A000020ADF80C00694667
S315080029000C48FFF7B5FA012240F224410948FFF7BF
S315080029108AFA012280210748FFF7CCF901224021D3
S315080029200448FFF7C7F901210248FFF7B7F906B0CF
S3150800293010BD000000100140000002400000000029
S315080029409829000801000000C029000802000000BC
S315080029503C2A000803000000FC29000804000000C7
S31508002960142A000805000000E42900080A000000EF
S31508002970642A0008801A06000000FFBF0A00000447
S3150800298000400000000004010000020001000002EF
S31508002990000000000700000049324320737461728A
S315080029A074207369676E616C207472616E736D69E9
S315080029B07373696F6E206661696C6564210D0A0020
S315080029C049324320446576696365206164647265AB
S315080029D07373204E6F20726573706F6E7365210D69
S315080029E00A000000493243207265616420646174FC
S315080029F061206572726F72210D0A00004932432008
S31508002A0057726974652064617461206572726F72A9
S31508002A10210D0A004932432073656E642072656190
S31508002A20642072656769737465722061646472658F
S31508002A307373206572726F72210D0A004932432042
S31508002A405772697465207468652077726F6E67209F
S31508002A5072656769737465722061646472657373FD
S31508002A60210D0A004932432062757320697320627A
S31508002A70757379210D0A0000982A000800000020C5
S31508002A8018000000801F0008B02A0008180000205F
S31508002A9090070000901F00080000000000000000DA
S31508002AA001020304010203040607080900000000E6
S7050800018968
