S31508000000A8070020A1010008D9130008490800081C
S31508000010D5130008AF0200089F1C00080000000066
S31508000020000000000000000000000000BD170008E6
S31508000030C106000800000000C9140008D518000809
S31508000040BB010008BB010008BB010008BB01000892
S31508000050BB010008BB010008BB010008BB01000882
S31508000060BB010008BB010008BB010008BB01000872
S31508000070BB010008BB010008BB010008BB01000862
S31508000080BB010008BB010008BB010008BB01000852
S31508000090BB010008BB010008BB010008BB01000842
S315080000A0BB010008BB010008BB010008BB01000832
S315080000B0BB010008BB010008BB010008BB01000822
S315080000C0BB010008BB010008BB010008BB01000812
S315080000D0BB01000841190008BB010008BB01000864
S315080000E0BB010008BB010008BB010008BB010008F2
S315080000F0BB010008BB010008BB010008BB010008E2
S31508000100BB010008BB010008BB010008BB010008D1
S31508000110BB010008BB010008BB010008BB010008C1
S31508000120BB010008BB010008BB010008BB010008B1
S31508000130BB010008BB010008BB010008BB010008A1
S31508000140BB010008BB010008BB010008BB01000891
S31508000150BB010008BB010008B5020008BB01000886
S31508000160BB010008BB010008BB010008BB01000871
S31508000170BB010008BB010008BB010008BB01000861
S31508000180BB010008BB010008DFF810D000F05EF8DC
S3150800019000480047E1240008AFF30080A8070020C4
S315080001A00648804706480047FEE7FEE7FEE7FEE703
S315080001B0FEE7FEE7FEE7FEE7FEE7FEE7D9180008DA
S315080001C08901000840EA01039B0703D009E008C932
S315080001D0121F08C0042AFAD203E011F8013B00F8FE
S315080001E0013B521EF9D270472DE9F05F0546002003
S315080001F092469B4688460646814640241BE028468A
S3150800020041464746224600F042F853465A46C01A27
S31508000210914110D311461846224600F029F82D1AA6
S3150800022067EB01084F4622460120002100F020F81E
S3150800023017EB00094E41201EA4F10104DFDC4846F5
S3150800024031462A464346BDE8F09F0000064C074D56
S3150800025006E0E06840F0010394E807009847103488
S31508000260AC42F6D3FFF794FF54270008742700081A
S31508000270202A04DB203A00FA02F100207047914058
S31508000280C2F1200320FA03F3194390407047202A4D
S3150800029004DB203A21FA02F00021704721FA02F322
S315080002A0D040C2F12002914008431946704700BF6A
S315080002B0FEE7000010B50A490A4800F011F968B1CE
S315080002C00749084800F02CF80021064800F042F8D3
S315080002D0012240F22661044801F04DFC10BD0000E1
S315080002E000800028B8640240001001400246094B0D
S315080002F09A4201D2084801E00648103801F0005336
S315080003001BB1064B0B40C36002E0044B0B408360F5
S315080003107047000010640240006002407D0F7D0FA8
S315080003200246094B9A4201D2084801E006481038AD
S3150800033001F000531BB1064B0B40C36002E0044BAF
S315080003400B40836070470000106402400060024062
S315080003507D0F7D0F21B1026842F00102026003E0C1
S31508000360026822F00102026070470000016821F06D
S31508000370010101600021016041608160C160016185
S31508000380212141614A49884204D13D21484A103A0F
S3150800039091608CE046491831884205D14FF4746162
S315080003A0434A103A916082E041493031884205D18A
S315080003B04FF474113E4A103A916078E03C4948314E
S315080003C0884205D14FF07461394A103A91606EE05F
S315080003D037496031884204D13649354A103AD160E6
S315080003E065E033497831884204D13349304A103AB6
S315080003F0D1605CE02E499031884204D12F492C4ABD
S31508000400103AD16053E02A49A831884205D14FF005
S315080004103D51274A103AD16049E02949884204D11A
S315080004203D21274A083A116041E02549183188429A
S3150800043005D14FF47461224A083A116037E0204921
S315080004403031884205D14FF474111D4A083A1160BB
S315080004502DE01B494831884205D14FF07461184A8E
S31508000460083A116023E016496031884204D11149DF
S31508000470134A121F11601AE011497831884204D1D3
S315080004800D490F4A121F116011E00D49903188423B
S3150800049004D10A490A4A121F116008E00849A8311E
S315080004A0884204D14FF03D51054A121F116070472A
S315080004B0106002403D000020400F002000003D2053
S315080004C010640240014600200A6802F001020AB1DF
S315080004D0012000E0002070470146486880B2704756
S315080004E070B50246002000240025124EB24201D201
S315080004F0114B01E00F4B103B104E0E4036B11E2635
S3150800050006EAD124166806EA040502E0566906F0EA
S31508000510800501F000560EB15C6800E01C68084EC4
S31508000520344004EA010616B10DB1012000E00020AE
S3150800053070BD000010640240006002403C0F3C0F92
S315080005407D0F7D0F10B501F080034BB122B14369D1
S3150800055043F08003436103E0436923F0800343616A
S3150800056080290BD02AB1036801F01E0423430360D7
S3150800057004E0036801F01E04A343036010BD0000F5
S3150800058010B500220268134B1A40CC680B68234347
S315080005904C6923438C692343CC6923430C6A234360
S315080005A04C6A23438C6A23434C6B23438C6B23434B
S315080005B01A430260426922F00702D1E90B34234349
S315080005C01A4342610B6943604B6883608B68C3605A
S315080005D010BD00003F801CF04160704700B58FB029
S315080005E00121880500F072FF3148FFF7BFFE00BF02
S315080005F02F48FFF767FF0028FAD14FF000600090F8
S315080006002C4801902C480290002003904FF4C870A3
S315080006100490002005904FF4806006900020079013
S31508000620089009904FF440300A9000200B90032060
S315080006300C9000200D900E9069461D48FFF7A0FF0C
S3150800064001211B48FFF786FE19483030FFF78EFE5A
S315080006504FF000600090174801901848029040201B
S3150800066003904FF4C8700490002005904FF4806002
S31508000670069000200790089009904FF480300A9061
S3150800068000200B900C900D900E906946084830306B
S31508000690FFF776FF002106483030FFF75BFE0122A0
S315080006A0102103483030FFF74DFF0FB000BD0000A2
S315080006B0886402400410014018000020A8010020A8
S315080006C07047000070B5002501240CE06106080E8D
S315080006D001F0CAFE28B1610006A001F0E9FA681C1B
S315080006E0C5B2601CC4B2802CF0DB15B90EA001F0AF
S315080006F0DFFA70BD66696E642069326320646576C8
S3150800070069636520616464726573733A203078257D
S3150800071078285772697465206164647265737320FA
S3150800072038626974290D0A004E6F2064657669631C
S315080007306520697320636F6E6E65637465642074E3
S315080007406F207468652049324320627573210D0A4B
S3150800075000000000F0B50A4600210023002400BF6F
S315080007603DE0012505FA01F3156805EA03049C42F4
S3150800077034D105684F000326BE40B5430560157998
S315080007804E00B5400668354305601579012D02D03F
S315080007901579022D16D185684F000326BE40B5434C
S315080007A0856055794E00B54086683543856045684D
S315080007B001268E40B5434560456896798E40B6B2A7
S315080007C035434560C5684F000326BE40B543C5603E
S315080007D0D5794E00B540C6683543C560491C102911
S315080007E0BFD3F0BDF0B5002300244D07ED0E02FA85
S315080007F005F3CE1000F1200555F826504E07F70EE2
S315080008000F26BE40B543CF1000F1200646F8275004
S31508000810CE1000F1200555F8265045EA0304CE10FF
S3150800082000F1200545F82640F0BD4FF6FF7101603E
S315080008300021017141718171C17170470AB18161ED
S3150800084001E00B048361704700BFFEE721B102880F
S3150800085042F48062028004E002884FF6FF331A40B1
S31508000860028070472DE9F0410746884616461D4620
S315080008704FF4206408E0201EA4F1010404D10A20E4
S3150800088000F056FCBDE8F0814FF400314F4800F007
S31508000890D5FA0028EFD101214C4800F0B7FA4FF4F9
S315080008A0807406E0201EA4F1010402D100F040FC89
S315080008B0E8E74749454800F03DFA0028F2D000220B
S315080008C03946424800F02AFC4FF4807407E0201E9F
S315080008D0A4F1010403D1012000F02AFCD2E73D4926
S315080008E03A4800F027FA0028F1D00121374800F0ED
S315080008F040FA4146354800F019FC4FF4807407E089
S31508000900201EA4F1010403D1042000F011FCB9E76C
S315080009103049891C2D4800F00DFA0028F0D0012135
S315080009202A4800F073FA4FF4807406E0201EA4F1FA
S31508000930010402D100F0FCFBA4E72549234800F096
S31508000940F9F90028F2D001223946204800F0E6FBE2
S315080009504FF4807407E0201EA4F1010403D101209E
S3150800096000F0E6FB8EE71A49491C184800F0E2F940
S315080009700028F0D022E0012D07D100211348FFF707
S3150800098065FF0121114800F04DFA4FF4206407E095
S31508000990201EA4F1010403D1052000F0C9FB71E76C
S315080009A00B493F31094800F0C5F90028F0D007483F
S315080009B000F0B0FB3070761C681E85B2002DDAD1C7
S315080009C001210248FFF742FF01205BE7005400407F
S315080009D001000300820007002DE9F04180460E461B
S315080009E017461D464FF4206408E0201EA4F10104B2
S315080009F004D10A2000F09CFBBDE8F0814FF40031D9
S31508000A005A4800F01BFA0028EFD10121574800F098
S31508000A10FDF94FF4807406E0201EA4F1010402D10A
S31508000A2000F086FBE8E75249504800F083F90028B1
S31508000A30F2D0002241464D4800F070FB4FF4807416
S31508000A4007E0201EA4F1010403D1012000F070FB89
S31508000A50D2E74849454800F06DF90028F1D0012150
S31508000A60424800F086F93112404800F05FFB4FF427
S31508000A70807407E0201EA4F1010403D1042000F0CD
S31508000A8057FBB9E73B49891C384800F053F9002859
S31508000A90F0D0F1B2354800F049FB4FF4807407E016
S31508000AA0201EA4F1010403D1042000F041FBA3E7B2
S31508000AB03049891C2D4800F03DF90028F0D0012165
S31508000AC02A4800F0A3F94FF4807406E0201EA4F12A
S31508000AD0010402D100F02CFB8EE72549234800F0DB
S31508000AE029F90028F2D001224146204800F016FBD9
S31508000AF04FF4807407E0201EA4F1010403D10120FD
S31508000B0000F016FB78E71A49491C184800F012F954
S31508000B100028F0D022E0012D07D100211348FFF765
S31508000B2095FE0121114800F07DF94FF4206407E095
S31508000B30201EA4F1010403D1052000F0F9FA5BE7B1
S31508000B400B493F31094800F0F5F80028F0D007486E
S31508000B5000F0E0FA38707F1C681E85B2002DDAD1E5
S31508000B6001210248FFF772FE012045E700540040C4
S31508000B7001000300820007002DE9F04781460E4672
S31508000B8014461F464FF0000813E014F8012B3146AF
S31508000B90731CDEB2484600F065F8C5B22DB907A049
S31508000BA001F086F80020BDE8F08708F101001FFA79
S31508000BB080F8B845E9DB2846F5E7000049324320C6
S31508000BC03862697420526567697374657220416476
S31508000BD064726573732042756666657220777269FA
S31508000BE07465206572726F72210D0A002DE9F0474F
S31508000BF081460E4614461F464FF0000813E014F8C7
S31508000C00012B3146731C9EB2484600F0B3FAC5B2B2
S31508000C102DB907A001F04CF80020BDE8F08708F1CF
S31508000C2001001FFA80F8B845E9DB2846F5E7000019
S31508000C304932432031366269742052656769737494
S31508000C4065722041646472657373204275666665D1
S31508000C5072207772697465206572726F72210D0A47
S31508000C60000000002DE9F04105460F461646012111
S31508000C702D4800F0CBF84FF4807407E0201EA4F14D
S31508000C80010403D100F054FABDE8F081274926484B
S31508000C9000F050F80028F1D000222946224800F03A
S31508000CA03DFA4FF4807407E0201EA4F1010403D135
S31508000CB0012000F03DFAE7E71D491B4800F03AF825
S31508000CC00028F1D03946184800F030FA4FF48074FD
S31508000CD007E0201EA4F1010403D1022000F028FA3F
S31508000CE0D2E71349891C104800F024F80028F0D0F0
S31508000CF031460D4800F01AFA4FF4807407E0201EBA
S31508000D00A4F1010403D1032000F012FABCE7084954
S31508000D10891C054800F00EF80028F0D00121024889
S31508000D2000F080F80120AFE70054004001000300FE
S31508000D308200070070B5024600250023002400261D
S31508000D40938A03F0020010B923F0100008B1148B3F
S31508000D5001E0002070BD240443EA040020F07F452A
S31508000D6005EA0100884201D1012600E00026304646
S31508000D70F0E721B1028842F00102028004E002880D
S31508000D804FF6FE731A400280704700001CB5012119
S31508000D90480500F0ABFB0121022000F097FB042276
S31508000DA008211948FFF71EFD042209211648FFF7F6
S31508000DB019FD6846FFF739FD4FF480700090022050
S31508000DC08DF804008DF8050001208DF80600002036
S31508000DD08DF8070069460C48FFF7BCFC6846FFF724
S31508000DE024FD4FF40070009002208DF804008DF861
S31508000DF0050001208DF8060000208DF807006946D9
S31508000E000148FFF7A7FC1CBD0004024021B1028877
S31508000E1042F48072028004E002884FF6FF631A40AB
S31508000E200280704721B1028842F40072028004E011
S31508000E3002884FF6FF531A40028070470CB50246E7
S31508000E40002000230193009300920B0F019321F0D9
S31508000E507F41019B1BB1009B1433009303E0090CEF
S31508000E60009B18330093009B1B680B400BB10120B5
S31508000E7000E000200CBD00002DE9FF4704460D46A2
S31508000E800026B1460427DFF8CC80A6884FF6C07046
S31508000E900640684600F06AFBDDF808802E48B8FB75
S31508000EA0F0F01FFA80F946EA0906A68020884FF670
S31508000EB0FE710840208000262849286888420CD8F8
S31508000EC028684000B8FBF0F087B2042F00DA042740
S31508000ED03E4309F10100208427E0E8884BF6FF71BC
S31508000EE0884206D1286800EB4000B8FBF0F087B2CC
S31508000EF009E0286800EBC00101EB0010B8FBF0F030
S31508000F0087B247F48047C7F30B0008B947F00107D3
S31508000F1047F4004006434FF4967009FB00F04FF47F
S31508000F207A7190FBF1F0401C2084A683208840F05B
S31508000F300100208026884FF6F5300640A888698982
S31508000F40084306432680A889298908432081BDE8E5
S31508000F50FF87000000127A0040420F00A0860100B9
S31508000F601FB5064B0FCB8DE80F0069460448FFF7FF
S31508000F7083FF01210248FFF7FCFE1FBD502600082B
S31508000F80005400402DE9F04106460D4617464FF439
S31508000F90206408E0201EA4F1010404D10A2000F010
S31508000FA0C7F8BDE8F0814FF400315748FFF746FF10
S31508000FB00028EFD101215448FFF728FF4FF4807429
S31508000FC006E0201EA4F1010402D100F0B1F8E8E71A
S31508000FD04E494D48FFF7AEFE0028F2D000223146B2
S31508000FE0494800F09BF84FF4807407E0201EA4F1EE
S31508000FF0010403D1012000F09BF8D2E74449424896
S31508001000FFF798FE0028F1D001213F48FFF7B1FE0F
S3150800101029123D4800F08AF84FF4807407E0201E34
S31508001020A4F1010403D1042000F082F8B9E7384995
S31508001030891C3548FFF77EFE0028F0D0E9B2324811
S3150800104000F074F84FF4807407E0201EA4F1010440
S3150800105003D1042000F06CF8A3E72D49891C2A481F
S31508001060FFF768FE0028F0D001212748FFF7CEFEDB
S315080010704FF4807406E0201EA4F1010402D100F0AA
S3150800108057F88EE721492048FFF754FE0028F2D08A
S31508001090012231461C4800F041F84FF4807407E0FD
S315080010A0201EA4F1010403D1012000F041F878E7DD
S315080010B01649491C1448FFF73DFE0028F0D00021C8
S315080010C01148FFF7C3FB01210F48FFF7ABFE4FF4AA
S315080010D0206407E0201EA4F1010403D1052000F0D6
S315080010E027F85EE709493F310748FFF723FE00283E
S315080010F0F0D0054800F00EF8387001210248FFF7D5
S31508001100A5FB01204DE70000005400400100030044
S31508001110820007000146088AC0B2704712B141F042
S31508001120010101E001F0FE0101827047018270476A
S3150800113070B5054600240DE00B4810F83400A842A7
S3150800114007D1094800EBC400416808A000F0B0FDCB
S3150800115002E0641C072CEFD300BF01210448FFF707
S3150800116061FE002070BD00001826000825730000E7
S31508001170005400402DE9F04106460D461746012168
S315080011803848FFF743FE4FF4807407E0201EA4F1A9
S31508001190010403D1FFF7CCFFBDE8F081324931489D
S315080011A0FFF7C8FD0028F1D0002231462D48FFF789
S315080011B0B5FF4FF4807407E0201EA4F1010403D1A3
S315080011C00120FFF7B5FFE7E728492648FFF7B2FDF4
S315080011D00028F1D029122348FFF7A8FF4FF480749E
S315080011E007E0201EA4F1010403D10220FFF7A0FFA7
S315080011F0D2E71E49891C1B48FFF79CFD0028F0D042
S31508001200E9B21848FFF792FF4FF4807407E0201EF2
S31508001210A4F1010403D10220FFF78AFFBCE71349B2
S31508001220891C1048FFF786FD0028F0D039460D487E
S31508001230FFF77CFF4FF4807407E0201EA4F1010439
S3150800124003D10320FFF774FFA6E70849891C054860
S31508001250FFF770FD0028F0D001210248FFF7E2FDF4
S31508001260012099E7005400400100030082000700AE
S315080012702DE9F04105460F4616464FF4206408E06E
S31508001280201EA4F1010404D10A20FFF751FFBDE88E
S31508001290F0814FF400314C48FFF7D0FD0028EFD11C
S315080012A001214948FFF7B2FD4FF4807406E0201E7D
S315080012B0A4F1010402D1FFF73BFFE8E7434942489E
S315080012C0FFF738FD0028F2D0002229463E48FFF7EE
S315080012D025FF4FF4807407E0201EA4F1010403D112
S315080012E00120FFF725FFD2E739493748FFF722FDE6
S315080012F00028F1D001213448FFF73BFD3946324832
S31508001300FFF714FF4FF4807407E0201EA4F10104D0
S3150800131003D10420FFF70CFFB9E72D49891C2A4899
S31508001320FFF708FD0028F0D001212748FFF76EFDDA
S315080013304FF4807406E0201EA4F1010402D1FFF7E1
S31508001340F7FEA4E721492048FFF7F4FC0028F2D06D
S31508001350012229461C48FFF7E1FE4FF4807407E096
S31508001360201EA4F1010403D10120FFF7E1FE8EE758
S315080013701649491C1448FFF7DDFC0028F0D0002167
S315080013801148FFF763FA01210F48FFF74BFD4FF4A9
S31508001390206407E0201EA4F1010403D10520FFF70D
S315080013A0C7FE74E709493F310748FFF7C3FC002821
S315080013B0F0D00548FFF7AEFE307001210248FFF76E
S315080013C045FA012063E700000054004001000300CD
S315080013D08200070000BFFEE7704708B54FF4A0601B
S315080013E000F068F825208DF8000002208DF801002D
S315080013F001208DF802008DF80300684600F01EF8FB
S3150800140044208DF8000002208DF801008DF80200B6
S3150800141001208DF80300684600F010F846208DF884
S31508001420000002208DF8010003208DF8020001203B
S315080014308DF80300684600F001F808BD70B5002174
S3150800144000230F22C4781CB3174C246804F4E06404
S31508001450C4F5E064C4F30721C1F10404E3B20A4108
S3150800146044789C40E1B28478144021430C07210E4D
S315080014700E4C05786155047804F01F050124AC402C
S3150800148005786D11AD0005F1E025C5F8004109E0C4
S31508001490047804F01F050124AC40054D0678761142
S315080014A045F8264070BD00000CED00E000E400E0C1
S315080014B080E100E002490143024A116070470000DA
S315080014C00000FA050CED00E07047000029B1064A55
S315080014D012680243044B1A6004E0034A1268824306
S315080014E0014B1A60704700003038024029B1064A9D
S315080014F012680243044B1A6004E0034A12688243E6
S31508001500014B1A60704700004038024029B1064A6C
S3150800151012680243044B1A6004E0034A12688243C5
S31508001520014B1A60704700002038024029B1064A6C
S3150800153012680243044B1A6004E0034A12688243A5
S31508001540014B1A60704700004438024029B1064A28
S3150800155012680243044B1A6004E0034A1268824385
S31508001560014B1A607047000024380240F0B500218C
S3150800157000220024022500260223324F3F6807F086
S315080015800C0121B1042905D0082937D105E02E4FD1
S31508001590076036E02D4F076033E02A4F3F1F3F684C
S315080015A0C7F38056274F3F1F3F6807F03F036EB1CA
S315080015B0264FB7FBF3F7DFF88CC0ACF1040CDCF868
S315080015C000C0CCF3881C07FB0CF40CE01E4FB7FBDD
S315080015D0F3F7DFF870C0ACF1040CDCF800C0CCF30C
S315080015E0881C07FB0CF4174F3F1F3F68C7F30147DA
S315080015F07F1C7D00B4FBF5F7076002E0124F076019
S3150800160000BF00BF0F4F3F6807F0F0010909104FF0
S315080016107A5C0768D74047600A4F3F6807F4E0518D
S31508001620890A0B4F7A5C4768D7408760054F3F6841
S3150800163007F46041490B064F7A5C4768D740C76094
S31508001640F0BD0000083802400024F40000127A00B9
S315080016500400002010B500F00FF800F099F810BD4E
S3150800166021B1028842F04002028004E002884FF667
S31508001670BF731A40028070471CB501210846FFF760
S3150800168025FF01210803FFF751FF052211463048BF
S31508001690FFF7A8F8052206212D48FFF7A3F805222B
S315080016A007212B48FFF79EF86846FFF7BEF820206B
S315080016B0009002208DF805008DF8040000208DF8B2
S315080016C006008DF8070069462148FFF743F8684683
S315080016D0FFF7ABF84020009002208DF805008DF842
S315080016E0040000208DF806008DF8070069461848A2
S315080016F0FFF730F86846FFF798F880200090022038
S315080017008DF805008DF8040000208DF806008DF888
S31508001710070069460E48FFF71DF86846FFF785F883
S315080017201020009002208DF8050001208DF8040095
S3150800173000208DF806008DF8070069460448FFF773
S3150800174009F8012210210248FFF778F81CBD0000AD
S315080017500000024010B50022028802F441520B88AC
S315080017604C8823438C882343CC8823430C89234302
S315080017704C8923438C892343CC8923431A4302800B
S31508001780838B4FF2FF74234083830B8A038210BD39
S3150800179000B585B0142207496846FEF713FD694669
S315080017A00548FFF7D7FF01210348FFF759FF05B0A2
S315080017B000BD0000602600080030014070470000A8
S315080017C00CB50020019000903448006840F4803041
S315080017D03249086000BF3148006800F400300090C4
S315080017E00198401C0190009818B90198B0F5A04FCF
S315080017F0F1D12A48006800F4003010B101200090A9
S3150800180001E0002000900098012846D12348403086
S31508001810006840F08050214940310860204800683F
S3150800182040F440401E4908601C48083000681B49BF
S31508001830083108600846006840F400400860084619
S31508001840006840F4A05008601648091F0860081F81
S31508001850006840F08070091F086000BF0F480068E4
S3150800186000F000700028F9D040F205700E490860B3
S315080018700A480830006820F0030008490831086063
S315080018800846006840F00200086000BF03480830B8
S31508001890006800F00C000828F8D10CBD003802409A
S315080018A00070004008544007003C0240042808D154
S315080018B04FF0E021096941F004014FF0E02211617F
S315080018C007E04FF0E021096921F004014FF0E0221A
S315080018D0116170477047000010B51548006840F45C
S315080018E07000134908601348006840F00100114968
S315080018F0086000200F49083108600E4800680E4944
S3150800190008400C4908600D48091D0860081F006852
S3150800191020F48020091F0860002006490C31086061
S31508001920FFF74EFF4FF0006001498039086010BD8F
S3150800193088ED00E000380240FFFFF6FE1030002474
S3150800194010B540F22441234800F0EBF890B301208B
S315080019502149086000212148FEF7FCFC1F48FEF7D4
S31508001960BBFDC0F5C8701E4908801E491B48FEF716
S31508001970BDFC1B480088622803DD01201649486023
S315080019800CE017480288184913480C30FEF71AFC71
S31508001990002111480C30124A128881544FF4C8713C
S315080019A00E48FEF719FE01210C48FEF7D3FC09483C
S315080019B000F070F940F22771064800F0A5F840B922
S315080019C0002240F22661034800F0D5F800200449B9
S315080019D0088010BD001001403803002088640240CA
S315080019E000000020000800201800002021B182898C
S315080019F042F40052828104E082894DF6FF731A4050
S31508001A00828170471AB1838A0B43838202E0838AF4
S31508001A108B4383827047000010B5044632488442DF
S31508001A2008D101211020FFF791FD00211020FFF7B2
S31508001A308DFD57E02D48844209D101214804FFF75E
S31508001A4065FD00214FF40030FFF760FD4AE02848A5
S31508001A50844209D101218804FFF758FD00214FF47B
S31508001A608020FFF753FD3DE02248844209D1012139
S31508001A70C804FFF74BFD00214FF40020FFF746FD91
S31508001A8030E01D48844209D101210805FFF73EFDD3
S31508001A9000214FF48010FFF739FD23E017488442F0
S31508001AA008D101212020FFF751FD00212020FFF752
S31508001AB04DFD17E01248844209D101218807FFF736
S31508001AC025FD00214FF08040FFF720FD0AE00D4874
S31508001AD0844207D101214005FFF718FD0021600562
S31508001AE0FFF714FD10BD000000100140004400403F
S31508001AF000480040004C00400050004000140140DF
S31508001B0000780040007C004002460020B1F5007FC6
S31508001B1000D100BF13880B400BB1012000E0002064
S31508001B20704770B50246002400230025002040F6C1
S31508001B306A16B14200D100BFC1F3421501F01F0376
S31508001B40012606FA03F3012D02D19689334006E0F1
S31508001B50022D02D1168A334001E0968A33400C12D0
S31508001B60012606FA04F41688344013B10CB1012094
S31508001B7000E0002070BDF0B50346002400260025CD
S31508001B80002040F66A17B94200D100BF1846C1F3D3
S31508001B90421401F01F06012707FA06F5012C01D1A8
S31508001BA00C3004E0022C01D1103000E014301AB1D8
S31508001BB007682F43076002E00768AF430760F0BD78
S31508001BC02DE9FF4705460E460024A14600BFA0465C
S31508001BD0B08900B100BF2C8A24F44054F08804432D
S31508001BE02C82AC8941F20C608443B0883189084361
S31508001BF0718908430443AC81AC8A24F44074B089E3
S31508001C000443AC826846FFF7B1FC2048854202D0FF
S31508001C101F48854202D1DDF80C9001E0DDF80890F6
S31508001C20A88900F4004040B109EBC90000EB09108F
S31508001C3031684900B0FBF1F707E009EBC90000EB92
S31508001C40091031688900B0FBF1F76420B7FBF0F0A2
S31508001C5004012009642101FB1078A88900F40040DA
S31508001C6040B1322000EBC800B0FBF1F000F00700ED
S31508001C70044308E0322000EB08106421B0FBF1F0C1
S31508001C8000F00F0004432C81BDE8FF8700100140D7
S31508001C900014014001468888C0F30800704700BF59
S31508001CA0FEE710B5FFF772F8FFF75AF910BD000006
S31508001CB00FB4054B10B503A9044A029800F018F8AA
S31508001CC010BC5DF814FB0000352400081400002041
S31508001CD002E008C8121F08C1002AFAD170477047E7
S31508001CE0002001E001C1121F002AFBD17047000045
S31508001CF02DE9FF4F8DB00F460546002606E025283C
S31508001D000BD0DDE90F1290476D1C761C2878002849
S31508001D10F5D111B03046BDE8F08F0024A246A146A1
S31508001D200122E94900E0044315F8013F203B02FA85
S31508001D3003F00842F7D128782A2810D06FF02F022E
S31508001D402878A0F13001092914D80AEB8A0102EB98
S31508001D50410144F0020400EB010A6D1CF0E701CFD3
S31508001D605FEA000A03D544F40054CAF1000A44F0B5
S31508001D7002046D1C28782E2817D115F8010F44F097
S31508001D8004042A280ED06FF02F022878A0F130011B
S31508001D9009290AD809EB890102EB410100EB01097F
S31508001DA06D1CF2E757F8049B6D1C28786C280FD039
S31508001DB006DC4C2817D068280DD06A2814D104E010
S31508001DC0742810D07A280FD10DE044F400140AE0E4
S31508001DD044F4801401E044F440146978814202D145
S31508001DE004F580146D1C6D1C28786E281ED00CDC3A
S31508001DF0632830D004DC00288BD0582811D19FE006
S31508001E00642867D069280CD164E073282DD004DCD7
S31508001E106F2872D0702804D194E075286ED078287F
S31508001E206DD0DDE90F129047761C4BE1C4F30250E2
S31508001E30022806D0032809D0042801CF09D0066055
S31508001E4040E101CFF117C0E900613BE101CF06800F
S31508001E5038E1067036E117F8040B8DF8000000200B
S31508001E608DF80100EB46012003E057F804BB4FF05C
S31508001E70FF3061074FF0000102D40DE008F10101BF
S31508001E80884649450FDA8045F8DB1BF80810002913
S31508001E90F4D108E008F1010188468142FADB1BF813
S31508001EA008100029F6D1DDE90F23AAEB08008146C0
S31508001EB0214600F031F9304400EB080604E0DDE97C
S31508001EC00F121BF8010B9047B8F10108F7D221460B
S31508001ED04846F2E00A21C4F302524FF0000B08917B
S31508001EE0022A04D001CFC117032A09D00AE0FF1D30
S31508001EF027F00707F7E8020108E02CE01EE01FE0DC
S31508001F0000B2C117042A01D140B2C117021E71F1ED
S31508001F10000206DA0023D0EB030063EB01012D2251
S31508001F2002E0220504D52B228DF82420012203E0A5
S31508001F30E20701D02022F7E7904653E00A210BE09A
S31508001F40102109E010214FF0000B44F004044FF073
S31508001F500809089103E008214FF0000B0891C4F323
S31508001F600252022A04D001CF0021032A06D006E035
S31508001F70FF1D27F00707F7E8020103E080B2042AED
S31508001F8000D1C0B24FF0000822072BD52A78702A54
S31508001F9007D0DDF820C08CF0100C5CEA0B0C05D0DD
S31508001FA00EE040228DF82420012208E050EA0103C1
S31508001FB006D030238DF824308DF82520022290464D
S31508001FC0089B83F0080353EA0B030BD150EA01027E
S31508001FD001D1620706D530228DF824204FF001087A
S31508001FE0A9F101092A78582A04D038A20B9208AA1E
S31508001FF00A920BE03AA2F9E75B46089AFEF7F4F86C
S315080020000B9B9B5C0A9A521E0A92137050EA0102B5
S31508002010F2D10A98ADEB000000F1200B600702D55B
S3150800202024F4803401E04FF00109D94502DDA9EB1B
S315080020300B0000E0002000EB0B0141440890AAEBDE
S31508002040010AE00306D4DDE90F232146504600F0D5
S3150800205063F806444FF0000908E009A911F80900D9
S31508002060DDE90F12904709F10109761CC145F4DB39
S31508002070E0030CD5DDE90F232146504600F04CF865
S31508002080064404E0DDE90F1230209047761C0899D3
S31508002090481E08900029F5DC08E00A980A99007895
S315080020A0491C0A91DDE90F129047761CBBF1000125
S315080020B0ABF1010BF1DC21465046DDE90F2300F0B8
S315080020C019F806446D1C21E609280100303132331F
S315080020D03435363738396162636465660000000056
S315080020E03031323334353637383941424344454640
S315080020F0000000002DE9F041044600251E4617465B
S31508002100880404D405E039462020B0476D1C641EB7
S31508002110F9D52846BDE8F0812DE9F04104460025A9
S315080021201E469046C80301D5302700E020278804BC
S3150800213004D505E041463846B0476D1C641EF9D5FE
S315080021402846BDE8F081000010B54FF00060084948
S3150800215008600420FFF7AAFB4FF6FF704FF0E02156
S3150800216048610846006940F00100086110BD00009A
S3150800217008ED00E02DE9FC5F0446002794F802808C
S31508002180E078019094F8049094F805B0A07900904E
S31508002190009840EA0B2AE51DB8F1060F35D2DFE8AC
S315080021A008F0340309101D312A7851460198FEF7C4
S315080021B0E1FF2EE04B462A4651460198FEF716FDEA
S315080021C027E02A4651460198FEF7DCFE074627B166
S315080021D02A78514610A0FFF76BFD1AE04B462A46AF
S315080021E051460198FEF7F8FB074657B1002606E068
S315080021F0AA5D0AEB060114A0FFF75AFD761C4E45A8
S31508002200F6D306E0FEF75EFA03E01BA0FFF750FDE3
S3150800221000BF00BFBDE8FC9F5265676973746572AD
S3150800222041646472203A203078253034782052652B
S315080022307475726E2056616C7565203D2030782560
S31508002240303278200D0A000052656769737465722A
S3150800225041646472203A20307825303478205265FB
S315080022607475726E2056616C7565203A2030782533
S31508002270303278200D0A00005573652031366269C0
S315080022807420526567697374657241646472206D5F
S315080022906F6465204572726F7221200D0A00000076
S315080022A02DE9F05F04464FF0000894F8029094F880
S315080022B003B0257994F805A0A61DFF2D01D1681C49
S315080022C085B2B9F1060F39D2DFE809F038030910EB
S315080022D01F35327851465846FEF7C4FC32E02B4685
S315080022E0324651465846FEF747FC2BE032465146E1
S315080022F05846FEF7BDFF8046B8F1000F04D0327885
S31508002300514612A0FFF7D4FC1CE02B463246514634
S315080023105846FEF7A7FA8046B8F1000F0AD00027FC
S3150800232006E0F25D0AEB070114A0FFF7C1FC7F1C6B
S31508002330AF42F6D306E0FEF7C5F903E01BA0FFF7A8
S31508002340B7FC00BF00BFBDE8F09F00005265676993
S315080023507374657241646472203A2030782530328D
S31508002360782052657475726E2056616C7565203DCD
S3150800237020307825303278200D0A000052656769CA
S315080023807374657241646472203A2030782530325D
S31508002390782052657475726E2056616C7565203AA0
S315080023A020307825303278200D0A000055736520D4
S315080023B0386269742052656769737465724164642A
S315080023C072206D6F6465204572726F7221200D0A46
S315080023D00000000070B50446257B667B552D03D0AA
S315080023E000202060A06070BD012E06D0022E09D004
S315080023F0032E0CD0042E14D10EE004F10C0000F0CC
S3150800240018F80FE004F10C00FFF74AFF0AE004F1A0
S315080024100C00FFF7AFFE05E004F10C0000F008F829
S3150800242000E000BF00BF00202060A0600120DAE7BE
S315080024307047704770B504460D4609490C7000BFD1
S315080024400848FEF73FF80028FAD101210548FEF7AB
S31508002450C3F801210348FDF77DFF204670BD000043
S31508002460A8010020B864024070B504460121194845
S31508002470FEF7CCFC4FF4807507E0281EA5F1010590
S3150800248003D1FEF755FEC0B270BD13491148FEF7D9
S3150800249051FC0028F1D0002221460E48FEF73EFEE8
S315080024A04FF4807509E0281EA5F1010505D1012123
S315080024B00848FEF7B7FC0020E6E708490548FEF796
S315080024C039FC0028EFD001210248FEF7ABFC0120B9
S315080024D0DAE700000054004001000300820007000C
S315080024E00024FFF731FEFEF778FF4FF4E13000F0E5
S315080024F03BF8FEF773F8FFF7D4FBFFF7ABF819E0E4
S315080025000D480068012814D10B484068012807D1F6
S315080025100AA0FFF7CDFB002007494860086009E0DC
S315080025200548FFF757FF04461CB90AA0FFF7C0FB8A
S31508002530002400BFE4E700003803002072656369E1
S315080025407665206461746120746F6F206D756368A9
S31508002550210D0A00646F5F70726F6365737320469E
S3150800256061696C210D0A000010B586B0044628483A
S31508002570FFF752FA01210846FEF7A8FF01211020AD
S31508002580FEF7D4FF072209212248FEF72BF9072276
S315080025900A212048FEF726F94FF4C060049002206D
S315080025A08DF8140003208DF8150000208DF816000C
S315080025B001208DF8170004A91648FEF7CBF80094F9
S315080025C00020ADF80400ADF80600ADF808000C20B0
S315080025D0ADF80A000020ADF80C0069460C48FFF774
S315080025E0EFFA012240F224410948FFF7C4FA012212
S315080025F080210748FFF706FA012240210448FFF721
S3150800260001FA01210248FFF7F1F906B010BD0000F2
S315080026100010014000000240000000007426000877
S31508002620010000009C260008020000001827000888
S3150800263003000000D826000804000000F026000861
S3150800264005000000C02600080A0000004027000810
S31508002650801A06000000FFBF0A00000400400000C0
S315080026600000040100000200010000020000000052
S31508002670070000004932432073746172742073693D
S31508002680676E616C207472616E736D697373696FBE
S315080026906E206661696C6564210D0A004932432023
S315080026A04465766963652061646472657373204E58
S315080026B06F20726573706F6E7365210D0A000000D6
S315080026C049324320726561642064617461206572D1
S315080026D0726F72210D0A00004932432057726974DD
S315080026E0652064617461206572726F72210D0A003B
S315080026F04932432073656E64207265616420726591
S3150800270067697374657220616464726573732065A2
S3150800271072726F72210D0A0049324320577269742A
S3150800272065207468652077726F6E672072656769C1
S31508002730737465722061646472657373210D0A008F
S315080027404932432062757320697320627573792153
S315080027500D0A000074270008000000201800000079
S31508002760D01C00088C2700081800002090070000DD
S31508002770E01C00080000000000000000010203043D
S3110800278001020304060708090000000017
S7050800018968
